:020000040800F2
:10000000E008002089010008253D0008BD27000800
:10001000F13C0008FD02000815490008000000003E
:10002000000000000000000000000000094300087C
:100030002103000800000000D14200080B43000823
:10004000A3010008A3010008A3010008A301000800
:10005000A3010008A3010008A3010008A3010008F0
:10006000A3010008A3010008A3010008A3010008E0
:10007000A3010008A3010008A3010008A3010008D0
:100080000103000811030008A3010008A3010008F0
:10009000A3010008A3010008A3010008A3010008B0
:1000A000A301000875430008A30100086543000888
:1000B000A3010008A3010008A3010008D12700083C
:1000C000C1270008F1270008E1270008A301000864
:1000D000A3010008A301000805490008A3010008C6
:1000E000A3010008A3010008A301000800F002F822
:1000F00000F03AF80AA090E8000C82448344AAF188
:100100000107DA4501D100F02FF8AFF2090EBAE885
:100110000F0013F0010F18BFFB1A43F0010318473B
:100120005C5500007C550000103A24BF78C878C1A7
:10013000FAD8520724BF30C830C144BF04680C60ED
:10014000704700000023002400250026103A28BF35
:1001500078C1FBD8520728BF30C148BF0B60704739
:100160001FB51FBD10B510BD00F058F81146FFF7C0
:10017000F7FF04F0EDFB00F076F803B4FFF7F2FFB1
:1001800003BC00F07DF8000009488047094800479B
:10019000FEE7FEE7FEE7FEE7FEE7FEE7FEE7FEE737
:1001A000FEE7FEE704480549054A064B7047000094
:1001B00063430008ED000008E0020020E008002092
:1001C000E0040020E00400204FF0000200B51346D8
:1001D00094469646203922BFA0E80C50A0E80C5067
:1001E000B1F12001BFF4F7AF090728BFA0E80C5018
:1001F00048BF0CC05DF804EB890028BF40F8042B11
:1002000008BF704748BF20F8022B11F0804F18BF7D
:1002100000F8012B7047704770477047754600F033
:100220002BF8AE4605006946534620F00700854688
:1002300018B020B5FFF7B6FFBDE820404FF000062C
:100240004FF000074FF000084FF0000B21F00701BE
:10025000AC46ACE8C009ACE8C009ACE8C009ACE801
:10026000C0098D46704710B50446AFF300802046A4
:10027000BDE81040FFF781BF0048704780020020B2
:1002800001491820ABBEFEE72600020070470000BF
:100290002DE9F0410F2000F01BF880460E2000F001
:1002A00017F808EB0027384605F0EEF806464FF041
:1002B0008B4105F00BF80546044905F0FDF80446AE
:1002C00005F0C6F880B2BDE8F08100000000B4433C
:1002D0001FB50446002003906420012103AA0B46A9
:1002E000CDE90021029022466C21034800F0CEFDAA
:1002F0009DF80C0004B010BD1401002000BFFEE703
:1003000010B5024800F098F810BD00003C02002033
:1003100010B5024800F090F810BD00006801002000
:10032000704772B600BFFEE70146002291F8210037
:10033000022808D00420886300BF002081F8200034
:1003400000BF012070470868006820F00E000B68AD
:1003500018600868006820F001000B68186091F8C8
:10036000403001209840CB6B5860012081F821007B
:1003700000BF002081F8200000BF1046E2E7000027
:1003800070B50446002594F82100022803D004200B
:10039000A063012548E02068006820F00E00216875
:1003A00008602068006820F00100216808601F498B
:1003B0002068884201D1012026E01C4914312068C0
:1003C000884201D110201FE0184928312068884256
:1003D00001D1801518E015493C312068884201D1CF
:1003E000801411E0114950312068884202D14FF445
:1003F000803009E00D4964312068884202D14FF411
:10040000801001E04FF080700849083948600120F1
:1004100084F8210000BF002084F8200000BF606B3A
:1004200010B12046616B8847284670BD0800024025
:10043000014691F82100704770B50446E06B0568ED
:100440002068066894F8401004208840284000285E
:1004500046D006F00400002842D02068006800F072
:10046000200028B92068006820F004002168086096
:1004700057492068884201D1042027E054491431AB
:100480002068884201D1402020E05149283120686D
:10049000884201D1001519E04D493C31206888425D
:1004A00002D14FF4804011E0494950312068884220
:1004B00002D14FF4802009E0454964312068884228
:1004C00002D14FF4800001E04FF0806040490839CC
:1004D0004860E06A00287AD02046E16A884776E0E2
:1004E00094F84010022088402840A0B306F0020093
:1004F00088B32068006800F0200040B920680068D8
:1005000020F00A0021680860012084F821003049A9
:100510002068884201D1022028E02D49143120684A
:10052000884201D1202021E02949283120688842D1
:1005300001D140151AE026493C312068884202D199
:100540004FF4005012E0224950312068884203D114
:100550004FF400300AE017E01D49643120688842FA
:1005600002D14FF4001001E04FF000701849083933
:10057000486000BF002084F8200000BFA06A30B3AC
:100580002046A16A884722E094F84010082088405D
:100590002840E0B106F00800C8B12068006820F0EB
:1005A0000E002168086094F8401001208840E16B3B
:1005B00048600120A06384F8210000BF002084F877
:1005C000200000BF206B10B12046216B884770BD12
:1005D000080002400146002209B901207047164B6D
:1005E0000868C01A1423B0FBF3F0800008641248B6
:1005F0000838C863022081F821000868026843F6C1
:10060000F0708243D1E901031843CB6818430B69AA
:1006100018434B6918438B691843CB69184302434D
:100620000868026000208863012081F82100002012
:1006300081F8200000BFD1E7080002402DE9F8470B
:100640000346002294466EE14FF0010808FA02F4D6
:10065000D1F8008008EA0400A0427DD1DFF8DCA2D6
:10066000D1F80480A8EB0A09D0453AD014DCB8F1DF
:10067000030F50D009DCB8F1000F31D0B8F1010FF1
:100680001CD0B8F1020F49D120E0B8F1110F18D0F9
:10069000B8F1120F42D11EE0B9F5881F25D006DC53
:1006A000B9F5803F20D0B9F5801F37D11AE0B9F5F0
:1006B000001F18D0B9F5041F30D117E0D1F80CC0D5
:1006C0002DE0D1F80C8008F1040C28E0D1F80C8062
:1006D00008F1080C23E0D1F80C8008F10C0C1EE0A6
:1006E00000BF00BF00BF00BF00BF00BFD1F808803F
:1006F000B8F1000F02D14FF0040C0BE0D1F80880E4
:10070000B8F1010F03D14FF0080C1C6102E04FF06B
:10071000080C5C6103E04FF0000C00E000BF00BF7C
:10072000FF2801D8984601E003F104084646FF2857
:1007300002D84FEA820803E0A2F108084FEA8808CD
:100740004746D6F800804FF00F0909FA07F928EA62
:1007500009080CFA07F900E088E048EA0908C6F839
:100760000080D1F8048008F08058B8F1805F7DD116
:1007700000BFDFF8CC81D8F8188048F00108DFF816
:10078000C091C9F81880C846D8F8188008F0010848
:10079000CDF8008000BF00BF4FEAB9384FEA920998
:1007A00058F829504FEA82784FEA18794FF00F082D
:1007B00008FA09F825EA0805DFF88881434502D1DF
:1007C0004FF0000816E0DFF88081434502D14FF07A
:1007D00001080FE0DFF87481434502D14FF00208B1
:1007E00008E0DFF86C81434502D14FF0030801E0D7
:1007F0004FF004084FEA82794FEA197908FA09F8AC
:1008000048EA0505DFF84C814FEA920948F829507B
:10081000D1F8048008F48018B8F5801F0AD1DFF8F9
:100820003881D8F8008048EA0008DFF82C91C9F830
:10083000008009E0DFF82081D8F8008028EA00086D
:10084000DFF81491C9F80080D1F8048008F400188A
:10085000B8F5001F10D1DFF8008108F10408D8F8BE
:10086000008048EA0008DFF8F09000E05AE009F163
:100870000409C9F800800DE0DFF8DC8008F1040805
:10088000D8F8008028EA0008DFF8CC9009F10409C4
:10089000C9F80080D1F8048008F40038B8F5003FAA
:1008A0000ED1DFF8B480A8F10408D8F8008048EA37
:1008B0000008DFF8A490A9F10409C9F800800DE050
:1008C000DFF89480A8F10408D8F8008028EA00082E
:1008D000DFF88490A9F10409C9F80080D1F80480F8
:1008E00008F48038B8F5803F0ED1DFF86C80A8F1AD
:1008F0000808D8F8008048EA0008DFF85C90A9F101
:100900000809C9F800800DE0DFF84C80A8F108085C
:10091000D8F8008028EA0008DFF83C90A9F108091F
:10092000C9F80080521CD1F8008028FA02F8B8F10A
:10093000000F7FF489AEBDE8F887000000001110B9
:100940000010024000080140000C0140001001406E
:100950000014014008000140080401400AB101618F
:1009600001E00B0403617047014800687047000014
:10097000400000207047000070B505460C46164642
:10098000012C06D1012303220349284600F0E7FC8D
:1009900001E0FFF7C6FC70BD380000202DE9F84FDC
:1009A0000446206847692068D0F80480002594F840
:1009B0003E90C7F3002070B1C8F3002058B145F055
:1009C00001056FF48070216848612068006840F478
:1009D000004021680860C7F3402040B1C8F3002000
:1009E00028B145F002056FF4007021684861C7F333
:1009F000802070B3C8F3002058B3CA46B4F82AB0B8
:100A000094F83D60206B0090BAF1200F0FD1BBF13C
:100A1000000F0CD1212E06D0292E04D0282E06D16D
:100A20000098212803D1204602F08AFD11E06FF4DE
:100A300080602168486145F00405B9F1100F02D0CB
:100A4000B9F1400F05D12068006840F400702168BA
:100A50000860C7F3C02040B1C8F3002028B145F0BA
:100A600008056FF40060216848612DB1206C2843AF
:100A70002064204601F058FFBDE8F88F2DE9F047CB
:100A800005464FF0000928684668D5F82CA095F86F
:100A90003E7095F83D80102F01D0402F75D1286809
:100AA000D0F818902868446904F0010060B9BAF5DC
:100AB0002A0F02D0BAF12A4F01D1012000E0002014
:100AC000012801D1BDE8F08704F0010048B1C6F368
:100AD000402030B1284601F093FE284602F035FB55
:100AE000B7E0C4F3C00030B1C6F3402018B12846C7
:100AF00002F0D6F9ADE0C4F3400030B1C6F34020B7
:100B000018B1284602F0E1F9A3E0C9F3800040B330
:100B10002868406800F40060B0F5006FE0D0C4F3CE
:100B2000C01048B1C6F3802030B1C4F3800018B9BA
:100B3000284602F049F98CE0C4F380000028CFD0A9
:100B4000C6F340200028CBD0B8F1210F03D12846AE
:100B500002F0EAF87DE0402F7BD1284602F044FB0A
:100B600077E02868406800F40060B0F5006F70D04E
:100B7000C4F3801050B1C6F3802038B1C4F38000B4
:100B800020B9284602F058F863E00BE0C4F3800077
:100B900000285ED0C6F3402000285AD0284601F035
:100BA000B8FF56E0286C10B12868446904E0286852
:100BB000D0F8189028684469C4F3400060B1C6F3C7
:100BC000402048B1286C10B12868D0F818904946E8
:100BD000284602F07DFC3CE0C4F3001030B1C6F3BF
:100BE000402018B1284602F0FFFC32E0B8F1210F96
:100BF00002D0B8F1290F16D1C4F3C01048B1C6F322
:100C0000802030B1C4F3800018B9284602F03DFCC2
:100C10001FE0C4F38000E0B1C6F34020C8B128460D
:100C200002F026FC15E0C4F3801048B1C6F3802022
:100C300030B1C4F3800018B9284602F0F6FB08E092
:100C4000C4F3800028B1C6F3402010B1284602F05A
:100C5000DFFB00BF36E7014691F83D0020281BD19D
:100C6000282081F83D000868006800F0010028B9DC
:100C70000868006840F001000A68106008680068B1
:100C800040F480600A6810600868406840F4407072
:100C90000A685060002070470220FCE710B5044647
:100CA0002046FFF7D8FF10BD70B504460CB90120EF
:100CB00070BD94F83D0028B9002084F83C0020461F
:100CC00000F096FA242084F83D002068006820F0A7
:100CD0000100216808602068006840F40040216835
:100CE00008602068006820F400402168086000F077
:100CF00027FD05465C496068884206D85B48854206
:100D000001D2012007E0002005E05948854201D2C8
:100D1000012000E00020012800D1C9E75548B5FBBB
:100D2000F0F62068406820F03F00304321684860BA
:100D30004D496068884201D8701C07E04FF49670F6
:100D400070434FF47A71B0FBF1F0401C2168096ADE
:100D500021F03F01084321680862434960688842E6
:100D600014D8681E61684900B0FBF1F0401CC0F364
:100D70000B00042801D204203DE0681E6168490090
:100D8000B0FBF1F0401CC0F30B0034E0A06838B9B0
:100D9000681E616801EB4101B0FBF1F0401C0AE004
:100DA000681E616801EBC10202EB0111B0FBF1F0BA
:100DB000401C40F48040C0F30B0008B901201AE049
:100DC000A06848B9681E616801EB4101B0FBF1F011
:100DD000401CC0F30B000CE0681E616801EBC1020F
:100DE00002EB0111B0FBF1F0401CC0F30B0040F42A
:100DF000804040F400402168C9694CF6FF7291437D
:100E000008432168C861D4E90701084321680968DB
:100E100021F0C001084321680860D4E903100843A9
:100E20002168896848F2FF3291430843216888604D
:100E3000D4E9050108432168C96821F0FF0108438E
:100E40002168C8602068006840F0010021680860DF
:100E500000202064202084F83D000020206384F8D6
:100E60003E0000BF24E70000A086010080841E0031
:100E700000093D0040420F0010B504462046FFF730
:100E8000EAFE10BD70477047704770472DE9FE4F6E
:100E900004460F4690469946DDE90CAB0E9E0020B5
:100EA0000290FFF761FD054694F83D00202872D1BD
:100EB00019230122CA492046009502F05BFC10B1BB
:100EC0000220BDE8FE8F00BF94F83C00012801D14C
:100ED0000220F6E7012084F83C0000BF206800688B
:100EE00000F0010028B92068006840F00100216886
:100EF00008602068006820F40060216808602220F3
:100F000084F83D00402084F83E0000202064C4F8AE
:100F100024A0A4F82AB0608D2085B248E0624B4638
:100F2000424639462046CDE9006502F0C1F908B1D4
:100F30000120C6E7208D88B900BF002001902068FD
:100F40004069019020688069019000BF00BF20685F
:100F5000006840F40070216808604BE0208D012893
:100F60001AD12068006820F480602168086072B699
:100F700000BF0020019020684069019020688069CE
:100F8000019000BF00BF2068006840F40070216835
:100F9000086062B62EE020E1208D022819D1206879
:100FA000006840F400602168086072B600BF00204D
:100FB000019020684069019020688069019000BF1D
:100FC00000BF2068006820F480602168086062B675
:100FD00010E02068006840F480602168086000BF6D
:100FE000002001902068406901902068806901908C
:100FF00000BF00BFE2E0208D03287DD8208D0128AE
:1010000015D12A463146204602F090FC08B1012055
:1010100057E720680069616A0870606A401C606276
:10102000208D401E2085608D401E6085C6E0208D8D
:1010300002282CD1334600226B492046009502F04D
:1010400099FB08B101203CE772B62068006840F4C3
:1010500000702168086020680069616A0870606A31
:10106000401C6062208D401E2085608D401E608582
:1010700062B620680069616A0870606A401C60623C
:10108000208D401E2085608D401E608596E0334691
:10109000002255492046009502F06CFB08B1012062
:1010A0000FE72068006820F480602168086072B64D
:1010B00020680069616A0870606A401C6062208D67
:1010C000401E2085608D401E6085484800681921BB
:1010D000B0FBF1F04FF47A71B0FBF1F0C0EBC0005F
:1010E00000EB8000029000BF0298401E0290029820
:1010F000A8B90020206300E039E0202084F83D00FA
:10110000002084F83E00206C40F02000206462B68D
:1011100000BF002084F83C0000BF0120D1E6206819
:101120004069C0F380000028DED02068006840F4E9
:1011300000702168086020680069616A0870606A50
:10114000401C6062208D401E2085608D401E6085A1
:1011500062B620680069616A0870606A401C60625B
:10116000208D401E2085608D401E608526E02A4629
:101170003146204602F0DAFB08B10120A1E62068E2
:101180000069616A0870606A401C6062208D401EC0
:101190002085608D401E608520684069C0F3800016
:1011A00060B120680069616A0870606A401C606212
:1011B000208D401E2085608D401E6085208D00287A
:1011C0007FF419AF202084F83D00002084F83E0011
:1011D00000BF84F83C0000BF73E6022071E6000007
:1011E000020010000000FFFF040001004C0000207E
:1011F00010B586B00446002002900390049005903C
:1012000049492068884251D100BF4848806940F070
:101210000800464988610846806900F0080001908E
:1012200000BF00BFC0200290122003900320059051
:1012300002A93F48FFF702FA00BF3C48C06940F4EA
:1012400000103A49C8610846C06900F400100190D6
:1012500000BF00BF374838490860002048600021BF
:10126000354881608021C1600021016141612021F8
:1012700081610021C161FFF7ADF908B1FFF751F8B5
:1012800000BF2D48A063446200BF002211461F200A
:1012900000F038F91F2000F025F900221146202027
:1012A00000F030F9202000F01DF93AE023492068D1
:1012B000884236D100BF1D48806940F008001B49B4
:1012C00088610846806900F00800019000BF00BFF7
:1012D0004FF440600290122003900320059002A971
:1012E0001348FFF7ABF900BF1048C06940F4800015
:1012F0000E49C8610846C06900F48000019000BF33
:1013000000BF01220021212000F0FCF8212000F084
:10131000E9F801220021222000F0F4F8222000F058
:10132000E1F806B010BD000000540040001002407B
:10133000000C01408000024068010020005800407D
:1013400004498978034A527841EA0221024A11800D
:1013500070470000380000203C000020704738B57E
:10136000044694F83D0000F02800282844D101B13B
:101370000AB9012038BD00BF94F83C00012801D112
:101380000220F7E7012084F83C0000BF20680068D5
:1013900000F0010028B92068006840F001002568CD
:1013A00028602068006820F40060256828602A20F2
:1013B00084F83D00202084F83E0000202064616213
:1013C0006285608D2085E36200BF00200090206868
:1013D0004069009020688069009000BF00BF00BF96
:1013E000002084F83C0000BF2068406840F4E060C2
:1013F000256868600020BDE70220BBE7034800685D
:1014000003490978084401490860704740000020FA
:101410004800002010B50848006840F01000064958
:101420000860032000F0ACF8032000F007F800F09B
:101430002BF8002010BD00000020024070B50446CB
:101440000E4800784FF47A71B1FBF0F00C4909684E
:10145000B1FBF0F5284600F0FDFB08B1012070BD9E
:10146000102C07D200222146501E00F04BF80548F0
:10147000046001E00120F2E70020F0E748000020CE
:101480004C0000204400002008B500BF13488069CC
:1014900040F00100114988610846806900F00100B0
:1014A000009000BF00BF00BF0846C06940F08050F8
:1014B000C8610846C06900F08050009000BF00BFBE
:1014C000052000F05DF800BF0549486820F0E060A5
:1014D00040F00070486000BF08BD000000100240EE
:1014E0000000014001460846002809DB00F01F0308
:1014F00001229A4043099B0003F1E023C3F8002135
:1015000000BF70472DE9F05F80460D461646002764
:1015100003F002FA074639462A46334601F007002F
:10152000C0F1070ABAF1040F02D94FF0040A01E032
:10153000C0F1070AD14600F1040ABAF1070F02D23E
:101540004FF0000A01E0A0F1030AD4464FF0010A6F
:101550000AFA09FAAAF1010A0AEA020A0AFA0CFAD4
:101560004FF0010B0BFA0CFBABF1010B0BEA030B79
:101570004AEA0B042146404603F0D6F9BDE8F09F45
:1015800000BF00F00702064B19684FF6FF03194031
:10159000044B0B4343EA0221014B196000BF704723
:1015A0000CED00E00000FA0570B504460D460CB9DC
:1015B000012070BD5A48006800F00700A8420ED212
:1015C0005748006820F0070028435549086008463E
:1015D000006800F00700A84201D00120E9E7207868
:1015E00000F0020002281DD1207800F00400042839
:1015F00005D14C48406840F4E0604A494860207892
:1016000000F00800082805D14648406840F46050C2
:10161000444948604348406820F0F000A16808430E
:1016200040494860207800F0010078B360680128E4
:1016300006D13C48006800F4003090B90120B8E7BA
:101640006068022806D13748006800F0007040B991
:101650000120AEE73348006800F0020008B901201D
:10166000A7E73048406820F00300616808432D492F
:101670004860FFF779F9064609E0FFF775F9801B26
:1016800041F28831884202D9032092E707E02548D9
:10169000406800F00C006168B0EB810FEDD120488C
:1016A000006800F00700A8420ED91D48006820F02D
:1016B000070028431A4908600846006800F0070040
:1016C000A84201D0012074E7207800F0040004282B
:1016D00007D11448406820F4E060E16808431149EC
:1016E0004860207800F00800082808D10D484068BC
:1016F00020F46050216940EAC1000A49486000F0C6
:101700003FF808494968C1F30311074A515CC840D2
:101710000649086006480068FFF790FE002048E789
:101720000020024000100240625600084C000020D9
:101730004400002001480068704700004C00002071
:1017400000B5FFF7F7FF04494968C1F30221034AD6
:10175000515CC84000BD00000010024072560008F5
:1017600000B5FFF7E7FF04494968C1F3C221034A06
:10177000515CC84000BD00000010024072560008D5
:1017800070B500210022002400230020134D696859
:1017900001F00C05F5B1042D02D0082D19D101E09E
:1017A0000F4819E00F4DC1F38346AB5D01F480355E
:1017B00055B10A4D6D68C5F340450B4E725D084D3D
:1017C0005D43B5FBF2F402E0084D03FB05F420464F
:1017D00002E000BF024800BF00BF70BD0010024021
:1017E00000127A00505600086056000800093D00BB
:1017F000F8B504460CB90120F8BD207800F00100CE
:10180000002878D0F848406800F00C0004280CD07C
:10181000F548406800F00C00082811D1F2484068F3
:1018200000F48030B0F5803F0AD1EF48006800F442
:10183000003000285FD0606800285CD10120DBE721
:1018400000BF6068B0F5803F06D1E748006840F40B
:101850008030E549086028E0606858B9E2480068CF
:1018600020F48030E04908600846006820F48020B9
:1018700008601AE06068B0F5A02F0BD1DA48006864
:1018800040F48020D84908600846006840F4803061
:1018900008600AE0D448006820F48030D24908602B
:1018A0000846006820F48020086000BF606888B1A6
:1018B000FFF75AF8054606E0FFF756F8401B642884
:1018C00001D9032098E7C848006800F400300028D8
:1018D000F2D010E0FFF748F8054606E0FFF744F8BD
:1018E000401B642801D9032086E7BF48006800F444
:1018F00000300028F2D1207800F00200022857D1F1
:10190000B948406800F00C0050B1B748406800F09A
:101910000C00082818D1B448406800F4803098B909
:10192000B148006800F0020020B12069012801D010
:10193000012061E7AC48006820F0F800616940EAE6
:10194000C100A949086033E02069E8B10120A74936
:101950000860FFF709F8054606E0FFF705F8401BA9
:10196000022801D9032047E79F48006800F00200E1
:101970000028F2D09C48006820F0F800616940EA35
:10198000C1009949086013E0002098490860FEF7FB
:10199000EBFF054606E0FEF7E7FF401B022801D9F2
:1019A000032029E79048006800F002000028F2D1E7
:1019B000207800F0080008282DD1A069B8B10120D6
:1019C0008B490860FEF7D0FF054606E0FEF7CCFF26
:1019D000401B022801D903200EE78348406A00F02B
:1019E00002000028F2D0012002F074FC13E0002075
:1019F0007F490860FEF7B8FF054606E0FEF7B4FF32
:101A0000401B022801D90320F6E67748406A00F01F
:101A100002000028F2D1207800F00400042873D1DD
:101A200000277148C06900F0805070B900BF6E484F
:101A3000C06940F080506C49C8610846C06900F038
:101A40008050009000BF00BF01276A48006800F482
:101A50008070B0B96748006840F4807065490860DC
:101A6000FEF782FF054606E0FEF77EFF401B642876
:101A700001D90320C0E65F48006800F480700028A8
:101A8000F2D000BFE068012806D15748006A40F054
:101A900001005549086227E0E06858B95248006AD9
:101AA00020F00100504908620846006A20F0040056
:101AB000086219E0E06805280BD14B48006A40F045
:101AC0000400494908620846006A40F001000862C3
:101AD0000AE04548006A20F00100434908620846D0
:101AE000006A20F00400086200BFE068A0B1FEF7C1
:101AF0003BFF054609E0FEF737FF401B41F2883106
:101B0000884202D9032077E622E03748006A00F0D5
:101B100002000028EFD012E0FEF726FF054608E09D
:101B2000FEF722FF401B41F28831884201D9032091
:101B300062E62D48006A00F002000028F0D1012F73
:101B400005D12948C06920F080502749C86100BFED
:101B5000E069C8B32448406800F00C00082860D051
:101B6000E069022848D1002020490866FEF7FCFE03
:101B7000054606E0FEF7F8FE401B022801D90320C7
:101B80003AE61948006800F000700028F2D1206A97
:101B9000B0F5803F07D11448406820F40030A168B8
:101BA000084311494860D4E9080108430E494968CF
:101BB00021F4741108430C49486001200B49086660
:101BC000FEF7D2FE054607E03DE0FEF7CDFE401BE6
:101BD000022801D903200FE60348006800F00070D6
:101BE0000028F2D02FE00000001002400000424226
:101BF0008004424200700040002014490866FEF74D
:101C0000B3FE054606E0FEF7AFFE401B022801D9F1
:101C10000320F1E50E48006800F000700028F2D1C2
:101C200011E0E069012800D1E6E50948466806F4BC
:101C30008031206A814204D106F47011606A8142C9
:101C400001D00120D8E50020D6E500000000424286
:101C50000010024070B504462546681EB0F1807F32
:101C600001D301200FE0681E4FF0E02148610F21F1
:101C70004FF0FF3002F058FE00204FF0E021886165
:101C800007200861002070BD7047704710B50346FB
:101C9000002200BF93F83C00012801D1022010BDB2
:101CA000012083F83C0000BF22F0FF00CC6840EA2E
:101CB000040222F440708C6840EA040222F480603E
:101CC0004C6840EA040222F400600C6840EA040216
:101CD00022F480500C6940EA040222F400504C695E
:101CE00040EA040222F48040CC6940EA0402186809
:101CF000426400BF002083F83C0000BF00BFCEE775
:101D000030B502460B4600BF92F83C00012801D1D5
:101D1000022030BD012082F83C0000BF022082F882
:101D20003D00106844681068816824F070041868E9
:101D3000044310684460104D1068A8420BD010682E
:101D4000B0F1804F07D00D4D1068A84203D00C4D64
:101D50001068A84205D121F080015868014310683D
:101D60008160012082F83D0000BF002082F83C0025
:101D700000BF00BFCDE70000002C01400004004080
:101D80000008004010B504460CB9012010BD94F8BD
:101D90003D0028B9002084F83C00204600F026F8D9
:101DA000022084F83D00211D206802F0EBFA01209A
:101DB00084F8460000BF84F83E0001213F20015511
:101DC000402001554120015500BF00BF012084F88B
:101DD000420043200155442001554520015500BFD4
:101DE000012084F83D000020D0E7000038B504460B
:101DF0001149206888421DD100BF1048806940F415
:101E000000600E4988610846806900F40060009017
:101E100000BF00BF012200211920FFF773FB19202A
:101E2000FFF760FB012200211B20FFF76BFB1B204B
:101E3000FFF758FB38BD0000002C014000100240A5
:101E40002DE9F04104460D46002700BF94F83C0000
:101E5000012802D10220BDE8F081012084F83C0075
:101E600000BF022084F83D002068866826F07706CF
:101E700026F47F46206886602868502833D00CDC22
:101E8000202850D004DC00284BD0102851D149E044
:101E9000302849D040284CD139E060282DD0702816
:101EA00007D0B0F5805F03D0B0F5005F41D10DE001
:101EB00041E0D5E902136A68206802F0AEFA2068B2
:101EC000866846F077062068866034E0D5E902131C
:101ED0006A68206802F0A1FA2068806840F48040B7
:101EE0002168886027E0EA686968206802F066FB7C
:101EF0005021206802F09CFA1DE0EA6869682068B9
:101F000002F06FFB6021206802F092FA13E0EA68A9
:101F10006968206802F052FB4021206802F088FACC
:101F200009E000BF00BF00BF2968206802F080FA06
:101F300001E0012700BF00BF012084F83D0000BF81
:101F4000002084F83C0000BF384684E7704710B595
:101F5000044620680069C0F34000D8B12068C0681A
:101F6000C0F34000B0B16FF00200216808610120A9
:101F700020772068806900F0030018B12046FFF741
:101F8000E5FF05E0204600F0D9F8204600F08DF985
:101F90000020207720680069C0F38000D8B1206855
:101FA000C068C0F38000B0B16FF004002168086120
:101FB000022020772068806900F4407018B1204624
:101FC000FFF7C4FF05E0204600F0B8F8204600F017
:101FD0006CF90020207720680069C0F3C000D8B1F8
:101FE0002068C068C0F3C000B0B16FF0080021687D
:101FF0000861042020772068C06900F0030018B150
:102000002046FFF7A3FF05E0204600F097F82046A2
:1020100000F04BF90020207720680069C0F3001021
:10202000D8B12068C068C0F30010B0B16FF01000E4
:1020300021680861082020772068C06900F440709A
:1020400018B12046FFF782FF05E0204600F076F841
:10205000204600F02AF9002020772068006900F06F
:10206000010058B12068C06800F0010030B16FF085
:10207000010021680861204600F082F920680069AB
:10208000C0F3C01058B12068C068C0F3C01030B1B0
:102090006FF08000216808612046FFF7F5FD206899
:1020A0000069C0F3801058B12068C068C0F3801088
:1020B00030B16FF0400021680861204600F061F9FE
:1020C00020680069C0F3401058B12068C068C0F3B0
:1020D000401030B16FF02000216808612046FFF702
:1020E000D4FD10BD10B586B00446002002900390C8
:1020F000049005900E492068884217D100BF0D4812
:10210000806940F004000B4988610846806900F04E
:102110000400019000BF00BF8815029002200390C8
:102120000120059002A90448FEF788FA06B010BD08
:10213000002C0140001002400008014070472DE9CA
:10214000F04104460D461646002700BF94F83C00B7
:10215000012802D10220BDE8F081012084F83C0072
:1021600000BF36B1042E1BD0082E31D00C2E5ED10C
:1021700045E02946206802F065F92068806940F052
:102180000800216888612068806920F004002168C7
:10219000886120688069296908432168886148E06E
:1021A0002946206802F07EF92068806940F40060CA
:1021B000216888612068806920F4806021688861D6
:1021C00020688069296940EA01202168886130E03F
:1021D0002946206802F09AF92068C06940F008009A
:1021E0002168C8612068C06920F004002168C861C6
:1021F0002068C069296908432168C86119E0294637
:10220000206802F0B7F92068C06940F400602168D6
:10221000C8612068C06920F480602168C8612068B6
:10222000C069296940EA01202168C86101E00127ED
:1022300000BF00BF00BF002084F83C0000BF38464C
:1022400089E710B504460CB9012010BD94F83D0093
:1022500028B9002084F83C00204600F025F8022030
:1022600084F83D00211D206802F08CF8012084F8DC
:10227000460000BF84F83E0001213F200155402068
:1022800001554120015500BF00BF012084F84200E4
:1022900043200155442001554520015500BF012030
:1022A00084F83D000020D0E77047704770B50446C1
:1022B0000D4615B994F83E000BE0042D02D13F20E5
:1022C000005D06E0082D02D14020005D01E04120C4
:1022D000005D012801D0012070BD1DB9022084F8E5
:1022E0003E000EE0042D03D102213F20015508E0FD
:1022F000082D03D102214020015502E00221412096
:10230000015501222946206802F076F81949206813
:10231000884201D1012000E0002028B12068406CF3
:1023200040F40040216848641249206888420BD07C
:102330002068B0F1804F07D00F492068884203D051
:102340000E49206888420CD12068806800F007069A
:10235000062E0CD02068006840F00100216808605B
:1023600005E02068006840F0010021680860002056
:10237000B2E70000002C01400004004000080040CB
:1023800070477047704770472DE9F84F0446206842
:1023900005682068C668206847694FF00009CA468A
:1023A00005F00F09B9F1000F0AD105F0200038B18E
:1023B00006F0200020B1204602F077F9BDE8F88F42
:1023C000B9F1000F7BD007F0010018B906F4907046
:1023D000002874D005F0010030B106F4807018B107
:1023E000606C40F00100606405F0040030B107F05B
:1023F000010018B1606C40F00200606405F002005A
:1024000030B107F0010018B1606C40F00400606466
:1024100005F0080048B106F0200010B907F00100EF
:1024200018B1606C40F008006064606C002845D012
:1024300005F0200028B106F0200010B1204602F07F
:1024400034F920684069C0F3801A606C00F008001D
:1024500010B9BAF1000F2CD0204602F0E0F8206845
:10246000406900F0400000B300BF00BF2168143194
:1024700051E8001F21F040002168143141E80002BA
:10248000002AF3D100BFE06B50B17748E16B48639D
:10249000E06BFDF775FF88B1E06B416B88470DE09D
:1024A0002046FFF770FF09E009E02046FFF76BFFC9
:1024B00004E02046FFF767FF002060647EE7206BA2
:1024C000012877D105F01000002873D006F0100025
:1024D0000028FAD000BF002000902068006800901B
:1024E00020684068009000BF00BF2068406900F08D
:1024F000400000285FD0E06B006840681FFA80F859
:10250000B8F1000F55D0A08D404552DDA4F82E80C3
:10251000E06B8069202843D000BF00BF21680C31E8
:1025200051E8001F21F4807021680C3141E800025D
:10253000002AF3D100BF00BF00BF2168143151E869
:10254000001F21F001002168143141E80002002A37
:10255000F3D100BF00BF00BF2168143151E8001F54
:1025600021F040002168143141E80002002AF3D133
:1025700000BF202084F842000020206300BF00BF7D
:1025800021680C3151E8001F21F0100021680C3146
:1025900041E80002002AF3D100BFE06BFDF7C4FE62
:1025A00002206063A08DE28D801A81B22046FFF781
:1025B000E9FE03E742E0A08DE18D401A1FFA80F8A2
:1025C000E08DD0B3B8F1000F37D000BF00BF216855
:1025D0000C3151E8001F21F4907021680C3141E862
:1025E0000002002AF3D100BF00BF00BF21681431F0
:1025F00051E8001F21F001002168143141E8000278
:10260000002AF3D100BF202084F84200002020637C
:1026100000BF00BF21680C3151E8001F21F01000FD
:1026200021680C3141E80002002AF3D100BF0220EA
:10263000606341462046FFF7A5FEBFE605F0800037
:1026400030B106F0800018B1204602F02BF9B5E653
:1026500005F0400030B106F0400018B1204602F00D
:1026600014F8ABE600BFA9E60B46000810B5044617
:102670000CB9012010BDA06900B100E000BF94F8C2
:10268000410028B9002084F84000204600F02AF8D4
:10269000242084F841002068C06820F4005021689C
:1026A000C860204602F080F82068006920F490405D
:1026B000216808612068406920F02A00216848618B
:1026C0002068C06840F400502168C8600020606441
:1026D000202084F8410084F842000020606300BF9D
:1026E000C8E7000010B586B00446002002900390B1
:1026F000049005902B492068884250D100BF2A4899
:10270000C06940F400302849C8610846C06900F437
:102710000030019000BF00BF00BF0846806940F054
:10272000040088610846806900F00400019000BF41
:1027300000BF04200290022003900320059002A90C
:102740001A48FDF77BFF08200290002003900490B8
:1027500002A91648FDF772FF1548164908600020C7
:1027600048600021134881608021C160002101611F
:102770004161202181610021C161FDF72BFF08B17A
:10278000FDF7CFFD00BF0B48E063446200BF0022AD
:1027900011462620FEF7B6FE2620FEF7A3FE06B061
:1027A00010BD00000044004000100240000801403D
:1027B0006C0002403C0200207047704700BFFEE7FB
:1027C00010B50248FEF7EAF810BD0000C000002076
:1027D00010B50248FEF752F910BD0000C0000020FD
:1027E00010B50248FEF7DAF810BD00001401002011
:1027F00010B50248FEF742F910BD00001401002098
:10280000C16AB1F52A0F02D10121C16205E0C16A96
:10281000B1F12A4F01D10821C1627047F8B50546D0
:10282000002000906C6A94F83D60394800681921D6
:10283000B0FBF1F04FF47A71B0FBF1F0C0EBC000E7
:1028400000EB8000009000BF009820B9206C40F0A1
:102850002000206409E00098401E00902068006875
:1028600000F40070B0F5007FEED000BF606B10B1D7
:102870000020616B8862A06B10B10020A16B8862A0
:102880002068006820F4806021680860002060856E
:10289000606B10B10020616B4863A06B10B1002029
:1028A000A16B48632068006820F00100216808607F
:1028B00094F83D0060280AD1202084F83D000020D3
:1028C00084F83E0020642046FEF754F81EE006F02F
:1028D0002800282811D12068006840F001002168F4
:1028E00008602068006840F480602168086000206B
:1028F0002063282084F83D0005E0202084F83D0076
:10290000002084F83E002046FEF7C8F9F8BD00001C
:102910004C00002001684969C1F3C01111B10021C8
:1029200002681161704700002DE9F041044694F8F7
:102930003D6094F83E70102F01D0402F07D1222E19
:1029400005D12068006820F400602168086006F066
:102950002800282805D100202063282084F83D0085
:1029600010E02068406800F40060B0F5006F07D008
:10297000602E05D0202084F83D00002084F83E0021
:10298000002020632068406800F40060B0F5006F0C
:1029900040D12068406820F4006021684860606B86
:1029A00090F82100012814D04848616B4863606B9F
:1029B000FDF7E6FC00285BD02068006820F00100ED
:1029C00021680860202084F83D00606B416B8847D7
:1029D0004EE03E48A16B4863A06BFDF7D1FC002898
:1029E00046D020684069C0F3801030B1206800698B
:1029F000616A0870606A401C60622068006820F0AC
:102A0000010021680860202084F83D00A06B416B24
:102A100088472DE094F83D0060281AD1202084F8E2
:102A20003D000020206420684069C0F3801030B170
:102A300020680069616A0870606A401C60622068F2
:102A4000006820F00100216808602046FDF792FF31
:102A50000EE020684069C0F3801030B12068006942
:102A6000616A0870606A401C60622046FEF716F9D1
:102A7000256C05F0010058B905F00200022807D0C6
:102A800005F00400042803D005F00800082805D14B
:102A90002068406820F4E0602168486094F83D6058
:102AA000206C00F0040004280ED1282E0CD1084818
:102AB000E06200202063202084F83D00002084F89C
:102AC0003E002046FEF7D8F9BDE8F0811D28000839
:102AD0000000FFFF014608684069C0F38020B0B1E4
:102AE0006FF480600A68506100200863202081F83C
:102AF0003D00002081F83E00086C40F004000864AE
:102B000000BF002081F83C0000BF0120704700207A
:102B1000FCE770B50446E56A608D042810D1206892
:102B2000406820F480602168486020680069616A1C
:102B30000870606A401C6062608D401E60857AE0AB
:102B4000608D03281AD12068406820F480602168D5
:102B50004860042D07D0022D05D02068006820F4BD
:102B600080602168086020680069616A0870606A96
:102B7000401C6062608D401E60855CE0608D0228B4
:102B80004FD1012D01D0102D06D12068006820F40E
:102B900080602168086012E0042D01D0022D06D16A
:102BA0002068006840F480602168086007E0102D0C
:102BB00005D02068006840F4007021680860206833
:102BC0000069616A0870606A401C6062608D401E26
:102BD000608520680069616A0870606A401C6062F4
:102BE000608D401E60852068406820F44070216838
:102BF0004860202084F83D0094F83E00402807D12A
:102C0000002084F83E0020632046FEF73DF912E0E4
:102C1000002084F83E00122020632046FEF732F99F
:102C200009E020680069616A0870606A401C60629F
:102C3000608D401E608570BD70B5044694F83D00FF
:102C4000222870D1658D032D13D920680069616A2F
:102C50000870606A401C6062608D401E6085608DF7
:102C600003285FD12068406820F4806021684860B4
:102C700058E0E06A02284FD0012D01D0002D4BD141
:102C8000204600F099FE68BB2068006820F4806050
:102C9000216808602068406820F4E060216848608E
:102CA00020680069616A0870606A401C6062608D1B
:102CB000401E6085202084F83D0094F83E004028A6
:102CC00007D1002084F83E0020632046FEF7DCF8A0
:102CD00028E0002084F83E00122020632046FEF702
:102CE000D1F81FE02068406820F4E0602168486067
:102CF00020680069616A0870606A401C6062608DCB
:102D0000401E6085202084F83D00002084F83E00AD
:102D10002046FDF7C3FF05E02068406820F480608E
:102D20002168486000BF70BD70B50446E56A94F83C
:102D30003D00212847D1608D50B1606A007821683C
:102D40000861606A401C6062608D401E60853AE0E8
:102D5000082D16D0202D14D015F5803F11D02068F5
:102D6000406820F4E0602168486011202063002062
:102D700084F83E00202084F83D002046FEF783F8CA
:102D800021E02068406820F4E06021684860206805
:102D9000006840F400702168086000202063202053
:102DA00084F83D0094F83E00402806D1002084F8C5
:102DB0003E002046FEF769F805E0002084F83E005A
:102DC0002046FEF760F870BD2DE9F041044694F806
:102DD0003D5094F83E70E66A208DB0BB212D3CD169
:102DE000082E16D0202E14D016F5803F11D0206862
:102DF000406820F4E06021684860112020630020D2
:102E000084F83E00202084F83D002046FEF73BF881
:102E100044E02068406820F4E06021684860206851
:102E2000006840F4007021680860002020632020C2
:102E300084F83D0094F83E00402807D1002084F833
:102E40003E002046FEF721F828E006E0002084F846
:102E50003E002046FEF717F820E0212D03D0402F3A
:102E60001CD1222D1AD1608D30B92068406820F421
:102E700080602168486011E094F83E00402803D14A
:102E8000204600F0B1F909E0606A00782168086125
:102E9000606A401C6062608D401E6085BDE8F08104
:102EA000416CC9B202681161416B11B1416B896A11
:102EB00021B9816B41B1816B896A29B10168496887
:102EC00041F4006102685160704738B590F83E20C7
:102ED000C16A036B90F83D40222C73D1046D64B934
:102EE000402A0AD100BF0024009404686469009459
:102EF0000468A469009400BF26E1046DC4B90469A4
:102F0000B4F5404F14D100BF0024009404686469F4
:102F100000940468A469009400BF00BF046824689A
:102F200044F4807405682C60046D641C04650BE136
:102F3000448D8CB900BF0024009404686469009437
:102F40000468A469009400BF00BF0468246844F4C6
:102F5000007405682C60E9E0448D012C72D111F5F4
:102F6000803F30D10468246824F4806405682C60B4
:102F70000468646804F40064B4F5006F10D1046858
:102F8000246824F4806405682C6000BF0024009449
:102F90000468646900940468A469009400BFC5E0F3
:102FA00000BF002400940468646900940468A46964
:102FB000009400BF00BF0468246844F400740568EE
:102FC0002C60B3E0B5E0082923D0202921D0122BB2
:102FD00001D101291DD104290AD0022908D01029C4
:102FE00006D00468246824F4806405682C6005E039
:102FF0000468246844F4806405682C6000BF0024E1
:1030000000940468646900940468A469009400BF93
:103010008CE00468246824F4806405682C6000BF98
:10302000002400940468646900940468A46900940E
:1030300000BF00BF0468246844F4007405682C6075
:1030400074E0FFE7448D022C47D104291BD00229EC
:1030500019D0102917D00468246844F40064056866
:103060002C6000BF00240094046864690094046824
:10307000A469009400BF00BF0468246824F480643D
:1030800005682C6010E00468246844F480640568D6
:103090002C6000BF002400940468646900940468F4
:1030A000A469009400BF00BF0468646804F400646D
:1030B000B4F5006F3AD111F5803F07D0012905D052
:1030C000082903D0102901D020292FD10468646871
:1030D00044F4805405686C6028E00468246844F473
:1030E000806405682C600468646804F40064B4F5C6
:1030F000006F10D111F5803F07D0012905D00829B4
:1031000003D0102901D0202905D10468646844F453
:10311000805405686C6000BF0024009404686469F2
:1031200000940468A469009400BF00BF00240465F3
:103130000AE000BF002400940468646900940468F5
:10314000A469009400BF00BF38BD90F83E1040292C
:103150000ED1016D29B9416C01F0FE0102681161C7
:1031600041E0416CC9B241F00101026811613AE0ED
:103170000169B1F5804F20D190F83D10212905D18A
:10318000416C01F0FE010268116105E0416CC9B2B9
:1031900041F0010102681161416B11B1416B896A13
:1031A00021B9816BF9B1816B896AE1B10168496824
:1031B00041F400610268516015E0016D41B9416C54
:1031C00001F44071F02242EAE111026811610AE063
:1031D000016D012907D1416C01F44071F12242EAED
:1031E000E11102681161704770B5044694F83D50D2
:1031F000206D98B9E06C012807D1A06CC0B221689D
:103200000861206D801C206550E0A06CC0F3072091
:1032100021680861206D401C206547E0206D012871
:1032200007D1A06CC0B221680861206D401C2065E8
:103230003CE0206D022836D1222D09D1206800689B
:1032400040F4807021680860206D401C20652DE0EE
:10325000608D60B1212D0AD1606A00782168086113
:10326000606A401C6062608D401E60851EE0608D5B
:10327000E0B9212D1AD12068406820F4E06021686F
:1032800048602068006840F40070216808600020F1
:103290002063202084F83D00002084F83E00204672
:1032A000FDF7F3FD02E02046FFF734FB70BD0000A0
:1032B0002DE9F84304460F4615469946DDE9088690
:1032C0002068006840F48060216808602068006819
:1032D00040F4807021680860434600224FF00111DD
:1032E0002046009600F046FA60B12068006800F4BD
:1032F0008070B0F5807F02D14FF40070206403200D
:10330000BDE8F88307F0FE002168086133464246B5
:103310003E49204600F08DFA08B10120F0E700BFD9
:10332000002000902068406900902068806900902B
:1033300000BF00BF32464146204600F065FB50B159
:10334000206C042805D12068006840F400702168D2
:1033500008600120D4E7B9F1010F03D1E8B2216878
:10336000086117E0C5F3072021680861324641462D
:10337000204600F049FB50B1206C042805D120689C
:10338000006840F40070216808600120B8E7E8B2E6
:103390002168086132464146204600F035FB50B1B5
:1033A000206C042805D12068006840F40070216872
:1033B00008600120A4E72068006840F4807021685C
:1033C0000860434600224FF001112046009600F0AD
:1033D000D1F958B12068006800F48070B0F5807FA2
:1033E00002D14FF400702064032089E7F8B240F066
:1033F000010021680861334642460449204600F036
:1034000018FA08B101207BE7002079E702000100EB
:10341000418D49B101680969426A1170416A491CCC
:103420004162418D491E4185704770B5044694F84C
:103430003D50608DD8B120680069616A0870606A8B
:10344000401C6062608D401E6085608D78B92A2DB9
:103450000DD12068406820F48060216848602220F7
:103460002063282084F83D002046FDF769FF70BDE9
:10347000418D49B1416A097802681161416A491C6C
:103480004162418D491E4185704770B5044694F8EC
:103490003D50608DD8B1606A007821680861606A2B
:1034A000401C6062608D401E6085608D78B9292D5A
:1034B0000DD12068406820F4806021684860212098
:1034C0002063282084F83D002046FDF747FF70BDAB
:1034D000F8B504460D46002794F83D0000F028009A
:1034E00028281CD12068406820F48060216848604A
:1034F000C5F3800000B90127C5F3C01010B9A08939
:1035000086B201E0208B86B200BF002084F83C0028
:1035100000BF324639462046FDF72EFA0FE000BFC5
:103520000020009020684069009020688069009029
:1035300000BF00BF00BF002084F83C0000BFF8BD02
:1035400070B5044694F83D50E66A082E01D0202E4E
:103550001FD1282D1DD12348E0622068406820F447
:10356000E060216848606FF48060216848612068ED
:10357000006820F48060216808600020206320201B
:1035800084F83D00002084F83E002046FDF774FCDE
:1035900026E0212D20D11348E06221202063202045
:1035A00084F83D00002084F83E002068406820F444
:1035B000E060216848606FF480602168486120689D
:1035C000006820F48060216808602046FFF7A2F9B7
:1035D0002046FDF7C3FE03E06FF480602168486178
:1035E00070BD00000000FFFF38B5044694F83D5060
:1035F0002068406820F4E0602168486000BF002037
:1036000000902068406900902068006840F0010048
:103610002168086000BF00BF2068006820F4806057
:10362000216808602068406800F40060B0F5006F11
:1036300042D1222D01D02A2D1FD1A06B00684068F5
:103640006085608D18B1206C40F004002064206813
:10365000406820F4006021684860A06BFCF7E8FE39
:10366000012829D04148A16B4863A06BFCF788FE74
:1036700010B3A06B416B88471EE0606B0068406828
:103680006085608D18B1206C40F0040020642068D3
:10369000406820F4006021684860606BFCF7C8FE59
:1036A000012809D03148616B4863606BFCF768FE04
:1036B00010B1606B416B8847608D18B3206840691A
:1036C000C0F3800048B120680069616A0870606AD0
:1036D000401C6062608D401E608520684069C0F3B8
:1036E000801048B120680069616A0870606A401CF7
:1036F0006062608D401E6085608D18B1206C40F066
:1037000004002064206C18B12046FFF70DF92BE06F
:103710002A2D07D100202063282084F83D00204670
:10372000FDF70EFE94F83D0028280DD11048E06208
:1037300000202063202084F83D00002084F83E0013
:103740002046FDF799FB0FE0206B222801D0222DA7
:103750000AD100202063202084F83D00002084F856
:103760003E002046FDF7ECFD38BD00001D28000896
:103770000000FFFF2DE9F04104460D4617461E46A6
:10378000DDF8188038E0701CA8B3FDF7EDF8A0EB69
:103790000800B04200D876BBC5F3074001280AD123
:1037A00020684069A9B20840A9B2884201D101202D
:1037B0000BE0002009E020688069A9B20840A9B2A6
:1037C000884201D1012000E00020B84214D100203D
:1037D0002063202084F83D00002084F83E00206C07
:1037E00040F02000206400BF002084F83C0000BFAF
:1037F0000120BDE8F081FFE7C5F3074001280AD1A9
:1038000020684069A9B20840A9B2884201D10120CC
:103810000BE0002009E020688069A9B20840A9B245
:10382000884201D1012000E00020B842ABD0002046
:10383000DFE72DE9F04104460D4616461F4658E0E5
:1038400020684069C0F38020E8B12068006840F437
:103850000070216808606FF4806021684861002072
:103860002063202084F83D00002084F83E00206C76
:1038700040F00400206400BF002084F83C0000BF3A
:103880000120BDE8F081701C90B3FDF76DF8C01BFE
:10389000B04200D866BBC5F3074001280AD12068B2
:1038A0004069A9B20840A9B2884201D101200BE0C9
:1038B000002009E020688069A9B20840A9B28842C6
:1038C00001D1012000E0002090B9002020632020D9
:1038D00084F83D00002084F83E00206C40F0200079
:1038E000206400BF002084F83C0000BF0120C8E72E
:1038F000FFE7C5F3074001280AD120684069A9B253
:103900000840A9B2884201D101200BE0002009E063
:1039100020688069A9B20840A9B2884201D101207B
:1039200000E0002000288BD00020AAE770B50446F4
:103930000D46164637E020684069C0F30010A0B17C
:103940006FF010002168486100202063202084F877
:103950003D00002084F83E00206C206400BF002061
:1039600084F83C0000BF012070BDFCF7FDFF801B08
:10397000A84200D8BDB920684069C0F3801090B952
:1039800000202063202084F83D00002084F83E00C1
:10399000206C40F02000206400BF002084F83C0030
:1039A00000BF0120E0E720684069C0F380100028D4
:1039B000C1D00020D8E7000008B5014600200090E3
:1039C000104800681922B0FBF2F04FF47A72B0FB95
:1039D000F2F000EB8000009000BF0098401E0090C5
:1039E000009828B9086C40F020000864012008BD48
:1039F0000868006800F40070B0F5007FEDD000208A
:103A0000F5E700004C00002070B504460D46164650
:103A100025E02046FFF75EF808B1012070BD681C64
:103A2000E8B1FCF7A1FF801BA84200D8BDB920680F
:103A30004069C0F3C01090B900202063202084F8B2
:103A40003D00002084F83E00206C40F020002064FF
:103A500000BF002084F83C0000BF0120DEE72068A2
:103A60004069C0F3C0100028D3D00020D6E7000082
:103A700010B50348FDF7EFF808B1FCF752FC10BD94
:103A8000C000002008B500BF0E48406940F00100AA
:103A90000C4948610846406900F00100009000BFF1
:103AA00000BF002211461020FDF72CFD1020FDF76D
:103AB00019FD002211461120FDF724FD1120FDF70C
:103AC00011FD08BD0010024000B585B00020019036
:103AD00002900390049000BF1D48806940F02000D0
:103AE0001B4988610846806900F02000009000BFF3
:103AF00000BF00BF0846806940F0040088610846A6
:103B0000806900F00400009000BF00BF00BF0846BD
:103B1000806940F0080088610846806900F008006C
:103B2000009000BF00BF002249150A48FCF716FFAD
:103B30004FF40070019001200290002003900220B9
:103B4000049001A90348FCF779FD05B000BD000011
:103B5000001002400008014010B50D480D490860F2
:103B60000D48486000210B4881600C4800884100E6
:103B70000848C1604FF480410161002141618161C9
:103B8000C1610162FDF790F808B1FCF7CAFB10BDF6
:103B900000540040C0000020A08601003400002036
:103BA00010B50B480B4908600B48486000210948D4
:103BB0008160C1604FF480410161002141618161F8
:103BC000C1610162FDF770F808B1FCF7AAFB10BDF6
:103BD0000058004014010020A086010000B595B0F7
:103BE000002011901290139014900F9010901C21AF
:103BF00008A8FCF7E9FA20216846FCF7E5FA2C480A
:103C00002C4908600020486000212A4881604FF656
:103C1000FF71C16000210161416180218161FEF776
:103C2000B1F808B1FCF77DFB4FF48050119011A959
:103C30002048FEF705F908B1FCF773FB1D48FEF7B5
:103C400000FB08B1FCF76DFB00200F9010900FA94E
:103C50001848FEF755F808B1FCF763FB60200890A0
:103C60000020099002200A9000200B900C900D90EB
:103C70000E90002208A90F48FEF761FA08B1FCF780
:103C800050FB0020009001900290039004904FF4AC
:103C9000005005900020079069460648FDF7F6FFA2
:103CA00008B1FCF73EFB0348FEF71CFA15B000BD57
:103CB000002C0140AC01002010B50B480B490860F6
:103CC0004FF4E1304860002108488160C160016123
:103CD0000C21416100218161C161FEF7C7FC08B17F
:103CE000FCF71FFB10BD000000440040F401002061
:103CF00000BFFEE770B504460D4622464FF48051E2
:103D00000648FCF72BFE40F2E7306843642190FB45
:103D1000F1F003490968486370BD0000000C0140E0
:103D2000AC01002000BFFEE72DE9F04F85B004464E
:103D3000894692469B4610AD95E8E001C4F844A040
:103D4000C4F84090C4F848B00020607000210F48CB
:103D50000A460B46CDE90010204600F073F96420B6
:103D6000A0602046159900F035F914988DE8E0011F
:103D700004902046DDE90E2300F0E8F9FCF7F4FD9D
:103D8000A168401A606005B0BDE8F08F00E06F40A8
:103D90002DE9F04F89B082469AF8010018B9002049
:103DA00009B0BDE8F08FFCF7DFFD8346DAF80410B8
:103DB000ABEB01000890DAF808100898814273D83C
:103DC000DAF84000C0C8DAF8480003C83B4632467B
:103DD000CDE9040101F090F980468946DAE916013F
:103DE00032463B46CDE9040101F07AF9CDE90601FE
:103DF000DAE90C0142464B46CDE9020101F03CF8FC
:103E0000CDE90401DAE91401CDE90201DDE9042379
:103E100000F0C0FDCAE914019AF8000098B9DAE987
:103E20000A01CDE90201DDE9062301F025F8CDE91B
:103E30000401DAE91401CDE90201DDE9042301F00E
:103E40005BF9CAE91401DAE91A01CDE90401DAE9FA
:103E50001401CDE90201DDE9042301F00BF904D2DC
:103E6000DAE91A01CAE9140110E0DAE91801CDE92A
:103E70000401DAE91401CDE90201DDE9042300F0CF
:103E8000BFFF03D2DAE91801CAE914019AF8000069
:103E900058B1DAE90A0142464B46CDE9040100F087
:103EA000EBFF04460D4602E03FE000242546DAE938
:103EB0000E01CDE90001DDE9062300F0DDFFCDE9CB
:103EC0000201DAE91401CDE90001DDE9022301F084
:103ED00013F922462B46CDE9040100F05BFD0446B0
:103EE0000D46DAE91A0102460B46CDE904012046E7
:103EF000294601F0BFF802D2DAE91A450CE0DAE906
:103F0000180102460B46CDE904012046294600F07F
:103F100077FF01D2DAE91845DAF8440030C0CAE97F
:103F20001667CAF804B001203AE7002038E700001D
:103F300070B50646304600F050FF0E4A03C2FCF74B
:103F4000A7F9054600F049FF0B4A03C20B48FFF7EB
:103F50001FFF0446E20F4FF400710948FCF7FEFC16
:103F6000251E01DB284600E06842C1B20120FFF7B0
:103F7000C1FE70BD20000020100000205000002075
:103F8000000801402DE9F0410446606C03C8C4E913
:103F90001401206C03C8C4E91601D4E91A733A4627
:103FA000D4E91451284601F065F804D2D4E91A0185
:103FB000C4E914010CE0D4E918733A46D4E9145169
:103FC000284600F01DFF03D2D4E91801C4E914010A
:103FD000BDE8F0812DE9F04104460D466078E8B176
:103FE000E078A8421AD0D4E90A633246002001469C
:103FF00001F082F8C4E90A01D4E90C6332460020DA
:10400000014601F079F8C4E90C01D4E90E633246A7
:104010000020014601F070F8C4E90E01E570BDE82A
:10402000F08170B504460D46012D01D1012000E05C
:104030000020064626B1607810B92046FFF7A2FF9F
:10404000667070BD2DE9F05F824614461D46DDE9BD
:104050000A6732463B462046294601F00BF801D854
:10406000BDE8F09FCAE91845CAE91A679AF8010045
:1040700000283DD0DAE91AB3DAF844005A46D0E90C
:104080000081404600F0F6FF06D2DAF84420DAE973
:104090001A10C2E9001010E0DAE91883DAF84400D7
:1040A0004246D0E900B1584600F0AAFE05D2DAF83F
:1040B0004420DAE91810C2E90010DAE91AB35A46C6
:1040C000DAE91481404600F0D5FF04D2DAE91A019A
:1040D000CAE914010CE0DAE918B35A46DAE91481A6
:1040E000404600F08DFE03D2DAE91801CAE9140156
:1040F00000BFB5E72DE9F05F04468946B9F1000F2E
:1041000022DDA06800F069FE07468846484600F0B8
:104110004DFE82463A46434600F0F0FC05460E4608
:104120002A463346D4E90C71384600F0A5FEC4E9AE
:104130000C012A463346D4E90E71384600F0DEFC05
:10414000C4E90E01C4F80890BDE8F09F2DE9FF5FB7
:10415000824614461D460EAE96E8C00B002213465A
:104160002046294600F04CFE0DD30022134630466F
:10417000394600F045FE06D3002213464046494624
:1041800000F03EFE01D2BDE8FF9F8AF802B0BBF10D
:10419000010F01D1012000E000208AF80000CAE9E7
:1041A0000445CAE90667CAE90889DAF8080000F098
:1041B00014FE0022214BCDE9000100F09FFCCDE967
:1041C0000201CAE90A4530463946DDE9022300F01A
:1041D00053FECAE90C0140464946DDE9022300F0DE
:1041E0008DFCCAE90E019AF80300012823D1DAE90F
:1041F0000A0102460B46CDE900010020014600F00D
:104200007BFFCAE90A01DAE90C0102460B46CDE957
:1042100000010020014600F06FFFCAE90C01DAE955
:104220000E02CDE90002024600200146019B00F08B
:1042300063FFCAE90E0100BFA5E7000000408F4000
:1042400000B589B000200121CDE9061014491548B8
:10425000CDE9041014491548CDE902100021144895
:10426000144B154ACDE9001014491548FFF75CFDC1
:1042700001211348FFF7D5FE01211148FFF73AFF4E
:10428000002110480A46104BCDE900100C48FFF7FA
:10429000D9FE00210D48074AC2E9001009B000BD4F
:1042A0002D431CEBE2361A3F9A9999999999C93F87
:1042B0000000F03F20000020180000201000002027
:1042C0005000002000004440000044C000806640D0
:1042D0007047000008B508490968C9084FF47A72A8
:1042E000B1FBF2F14143009100BF00BF00994A1EAB
:1042F00000920029F9D108BD4C0000200148008837
:10430000704700003C000020704710B5FDF776F8BC
:1043100010BD00B58FB0282105A8FBF755FF14216B
:104320006846FBF751FF02200590012009901020FC
:104330000A9000200C9005A8FDF75AFA08B1FBF787
:10434000F0FF0F2000900020019002900390049055
:1043500000216846FDF728F908B1FBF7E2FF0FB02E
:1043600000BD704710B50248FDF7F1FD10BD00001B
:10437000AC01002010B50248FDF7E9FD10BD0000BA
:10438000AC01002010B50268184B984208D0B0F17B
:10439000804F05D0164B984202D0164B984203D15D
:1043A00022F070024B681A43104B984208D0B0F1CB
:1043B000804F05D00E4B984202D00E4B984203D14D
:1043C00022F44072CB681A4322F080034C6943EA1E
:1043D000040202608B68C3620B688362034B9842DD
:1043E00001D10B6903630123436110BD002C01401F
:1043F000000400400008004030B501F01F05012412
:1044000004FA05F3046A9C430462046A01F01F0580
:1044100002FA05F52C43046230BD30B50C468168C4
:1044200021F47F4142EA032525432943816030BDC1
:104430000A46816821F0700142F007031943816048
:104440007047000030B5026A056A25F00105056273
:104450004368846924F0700424F003040D682C433D
:1044600022F002028D682A430D4DA84206D100BFFA
:1044700022F00802CD682A4322F00402084DA84227
:1044800007D123F4807323F400734D692B438D69A6
:104490002B43436084614D684563026230BD000078
:1044A000002C014030B5026A056A25F0100505624E
:1044B0004368846924F4E04424F440740D6844EAB9
:1044C000052422F020028D6842EA05120E4DA84212
:1044D00007D100BF22F08002CD6842EA051222F027
:1044E0004002094DA84209D123F4806323F40063FC
:1044F0004D6943EA85038D6943EA8503436084611E
:104500004D688563026230BD002C014030B5026AFF
:10451000056A25F4807505624368C46924F0700457
:1045200024F003040D682C4322F400728D6842EAE3
:1045300005220F4DA84207D100BF22F40062CD68CA
:1045400042EA052222F48062094DA84209D123F4EF
:10455000805323F400534D6943EA05138D6943EA00
:1045600005134360C4614D68C563026230BD00003D
:10457000002C014030B5036A056A25F480550562B8
:104580004468C26922F4E04222F440720D6842EAB3
:10459000052223F400538D6843EA0533064DA842F3
:1045A00004D124F480444D6944EA85144460C26116
:1045B0004D680564036230BD002C014030B50B46E8
:1045C0001446026A056A25F001050562816921F039
:1045D000F00141EA041122F00A021A4381610262E9
:1045E00030BD30B50B461446026A056A25F0100549
:1045F0000562816921F4704141EA043122F0A00290
:1046000042EA03128161026230BD70B505466C6AF0
:104610000020E085E0842046FDF7B5FE70BD00BFB8
:1046200000BF02680C3252E8002F22F49071026839
:104630000C3242E80013002BF3D100BF00BF00BFD3
:104640000268143252E8002F22F00101026814328D
:1046500042E80013002BF3D100BF016B01290ED1FA
:1046600000BF00BF02680C3252E8002F22F0100198
:1046700002680C3242E80013002BF3D100BF202166
:1046800080F8421000210163704710B5044620688D
:10469000C06820F040002168C860202084F84100F4
:1046A0002046FEF78AF8002010BDF8B5044694F8BD
:1046B0004200222875D1A068B0F5805F0CD1206936
:1046C00050B90025A66A20684068C0F30800308011
:1046D000A06A801CA06215E0A56A0026A068B0F55B
:1046E000805F03D0A06828B9206918B920684068A5
:1046F000287004E02068406800F07F002870A06AFD
:10470000401CA062E08D401E80B2E085002846D1AA
:104710002068C06820F020002168C8602068C06858
:1047200020F480702168C8602068406920F0010092
:1047300021684861202084F8420000206063206BDB
:10474000012826D10020206300BF00BF21680C3162
:1047500051E8001F21F0100021680C3141E80002EF
:10476000002AF3D100BF2068006800F01000102874
:104770000AD100BF002000902068006800902068E7
:104780004068009000BF00BFA18D2046FDF7FAFDF4
:1047900002E02046FEF710F80020F8BD01E00020FE
:1047A000FBE70220F9E7000070B5044621680969BB
:1047B00021F44051E2681143226811612269A16825
:1047C0001143626941EA02052168C96841F20C623D
:1047D000914329432268D1602168496921F44071DD
:1047E000A2691143226851612D4A2168914202D188
:1047F000FCF7B6FF01E0FCF7A3FF00EBC00101EB03
:10480000001162689200B1FBF2F100EBC00202EB12
:10481000001263689B00B2FBF3F26423B2FBF3F275
:1048200002EBC20303EB0212A1EB8201322202EB84
:1048300001116422B1FBF2F101F0F00100EBC002C2
:1048400002EB001263689B00B2FBF3F26423B2FB3D
:10485000F3F201EB021200EBC00101EB00116368FF
:104860009B00B1FBF3F100EBC00303EB00136668A0
:10487000B600B3FBF6F36426B3FBF6F303EBC30613
:1048800006EB0313A1EB8301322303EB0111642335
:10489000B1FBF3F101F00F0111442268916070BD8A
:1048A00000380140014691F84100212828D188684C
:1048B000B0F5805F0BD1086948B90A6A1088C0F367
:1048C00008000B685860086A801C086205E00B6AE3
:1048D000581C086218780B685860C88C401E80B25B
:1048E000C88458B90868C06820F080000B68D86098
:1048F0000868C06840F040000B68D860002070472E
:104900000220FCE710B50248FDF73EFD10BD000097
:10491000F401002000BFFEE702480068C0F3022057
:10492000704700000CED00E010B5002804DB0A071A
:10493000130E054A135406E00A07140E034A00F04A
:104940000F031B1FD45410BD00E400E018ED00E07D
:10495000FCF760FDFFF7DDFCFFF7B6F8FFF792F814
:10496000FFF73CF9FFF71CF9FFF7A6F9FFF7F4F89A
:1049700000210748FDF79AFCFFF762FCFFF778F883
:1049800004E0FFF7BBFC0446FFF7D2FAF9E70000AA
:10499000AC01002010B591EA030F48BF83F000433B
:1049A00000F1B283841A71EB030C05D2121943EBA8
:1049B0000C03001B61EB0C01DFF824E14FEA1154FA
:1049C000A4EB135C1EEA430F18BF9EEA445F73D04A
:1049D00023EA0E03DCF1200E21EA045143F4801394
:1049E00032D322FA0CFE10EB0E0023FA0CFE41EB40
:1049F0000E01CCF1200E03FA0EFE10EB0E0051F169
:104A00000001B1F5801FCCF1200E32D201EB045130
:104A100012FA0EF2BDE8104058BF7047401C38BF74
:104A20005FEA420218BF7047002814BF20F001005F
:104A300041F100014FEA410313F5001F38BF7047F1
:104A4000A1F1C04100F010BB012A43EB0302ACF11D
:104A5000200CDCF11F0E32BF4FF0000E23FA0CF3D6
:104A600010EB030041EB0451B4EB115FD0D0A1EB8C
:104A7000045101F5801149085FEA300001EB04514F
:104A80000ED350F1000038BF12FA0EFE08D1BDE877
:104A90001040C9E7401C38BF5FEA4202CAD1C3E7F1
:104AA000BDE810404FEA410313F5001F38BF7047BF
:104AB000A1F1C04100F0D8BA9EEA445F08D011EAE3
:104AC0005E0FBDE8104004BF01F0004100207047B8
:104AD000BDE8104070B500F079FA00BF64FBBE3E3F
:104AE0000000E0FF491058BFC1F140415B1058BFC2
:104AF000C3F140438B42EFF3008070472DE9C04182
:104B000030B4DFF8A0C23CEA111418BF3CEA131419
:104B100000F0EC8081EA03051CEA111444EAD57424
:104B200018BF1CEA131500F0C780A4EB05044FF072
:104B3000004545EAC12145EAC32341EA505143EA11
:104B4000525304F17F74994204F500344FEAC020B7
:104B50004FEAC22208BF904200F09C804FEA1365E2
:104B60000FF24016765D4FEA134506FB05F7C7F1D5
:104B7000807706FB07F74FEAD737A7FB0368764233
:104B8000C8F58038A7FB06CE38BFA8F1010807FB9F
:104B900008E64FF0000EA6FB028CE6FB03CEDCF12C
:104BA000000CCEF1004E38BFAEF1010EA6FB0C5842
:104BB0004FF000074FF00005E6FB0E87A1FB08C68B
:104BC000A0FB07CE16EB0E0645F10005E1FB0765DD
:104BD00015F1E04E7EBFA4F580345FEA46066D41D4
:104BE00016F1800745F100054FEA17274FEA0666E0
:104BF00047EA0567A6F1DE46B6F1805F4FEA152564
:104C00001FD9384624F0010C05EBC471BCF1FE6FCE
:104C100001EB0C1102D8F0BCBDE8008124425CBF5E
:104C200001F5801E9EEAC47F02D4F0BCBDE800817D
:104C3000244238D4F0BCA1F1C041BDE8004100F0ED
:104C400013BA4FEAD22242EA43524FEAD323A7FBD8
:104C500002864FEAD02040EA415007FB03661EEA75
:104C60000E0F4FEAD12105FB026658BFA6EB005696
:104C7000B6EB00564FEA520E4EEAC37E18EB0E0E0C
:104C800056EB530EBDD518EB02085E417F1C55F163
:104C90000005B6E74FF480154FF000074FF000060F
:104CA0004FF00008ADE7F0BC4FF0000001F1C0414B
:104CB00001F00041BDE8008111EA0C1F0CEA131558
:104CC00000D00CE013EA0C1F00F025804FF000002C
:104CD000F0BC81EA030101F00041BDE80081F0BCB5
:104CE000BDE8004181EA030100F0BEB9F0BCBDE8B7
:104CF000004170B500F06AF9097EFC3E00F007B88B
:104D000081EA03014FF0000001F00041704781EAA1
:104D1000030100F0A9B9F0BCBDE800414FF000006C
:104D200021497047FFFDFBF9F7F5F4F2F0EEEDEBEA
:104D3000E9E8E6E4E3E1E0DEDDDBDAD8D7D5D4D399
:104D4000D1D0CFCDCCCBCAC8C7C6C5C4C2C1C0BFE5
:104D5000BEBDBCBBBAB9B8B7B6B5B4B3B2B1B0AFEB
:104D6000AEADACABAAA9A8A8A7A6A5A4A3A3A2A1CF
:104D7000A09F9F9E9D9C9C9B9A999998979796958A
:104D800095949393929191908F8F8E8E8D8C8C8B26
:104D90008B8A8989888887878685858484838382AE
:104DA000828181800000FF070000F87F10F0004240
:104DB00048BF4042B0FA80F310FA03F10AD0C3F1C1
:104DC0001D0303F580634FEA415002EB035202EBEF
:104DD000D12170474FF000007047B0FA80F310FA0D
:104DE00003F10AD0C3F11D0303F580634FEA41507C
:104DF0004FEA035202EBD12170474FF00000704799
:104E000051EA030C17D41CF5801F58BFBCF5801F56
:104E100000F10680994218BF704708BF9042704762
:104E200007D711F5801F58BF13F5801F19D4994279
:104E30007047894270471CF5801F08D5BCF5801F5C
:104E4000F7D58B4218BF704708BF824270474FF4B6
:104E5000001C1CEB410F38BF1CEB430F01D28B42EF
:104E6000704770B500F0B2F8922449004FF000513D
:104E70004FF08053FFF736BEDFF848C170B51CEA2B
:104E8000111E1EBF1CEA13159EEA0C0F95EA0C0FAB
:104E900000F06F8081EA030423EA4C134EEAD47ECB
:104EA00021EA4C1141F4801143F48013AE44A1FB7C
:104EB000024CA0FB0365AEF17F7E361955EB0C0565
:104EC000A1FB034C4CF10003A0FB021C16EB0C06EB
:104ED000654153F10003094218BF46F0010613F47F
:104EE000007F0BD14FEA03314FEA0530340341EA2A
:104EF000155140EA16506FF003020AE04FEAC32151
:104F00004FEAC520F40241EA555140EA56506FF08D
:104F1000020202EB2E4201EB025585EACE710AD065
:104F20005FEA440C18BF24F0004450F1000041F146
:104F3000000120EAD47040F2FE7C624500D270BDD0
:104F4000A84214BF4FF080444FF04044002E08BFE9
:104F50000024BEF1806FA8BFA1F1C041BDE8704040
:104F600080F282804FF0000001F1C04101F0004169
:104F700070479EEA0C0F0CEA131518BF95EA0C0F48
:104F800006D04FF0000081EA030E0EF0004170BD24
:104F900000F01CF88900013E00F007B800F009B8E5
:104FA0004FEA430C5FEA5C5C08D081EA030100F041
:104FB0005BB84FEA410C5FEA5C5CF6D14FF0000051
:104FC000014970470000FF070000F87F0EF1020E54
:104FD0002EF0030E5EF8046B364205D4012A43EB33
:104FE000030515F5001F12D8012841EB010C1CF533
:104FF000001F0CD80ED14FEAD17C15F5001F0CEB29
:105000004C0C0CF1020C08BF4CEBD37C04E04FF0CD
:10501000080C01E04FEAD37C0CEB4C0526FA05F6B0
:1050200006F00706B6F1040C06D20EEB860CBDE8BE
:1050300070404CF0010C6047DFE80CF0090B0202F5
:105040004FF000414FF00000A1F5002170BD19465E
:105050001046012851EB010418BFD4F5001484BF99
:10506000002001F0004170BD0808A0F500114FEAD2
:105070003101704753EA010C17D41CF5801F58BF4B
:10508000BCF5801F00F106808B4218BF704708BF37
:105090008242704707D713F5801F58BF11F5801F54
:1050A00019D48B4270479B4270471CF5801F08D56E
:1050B000BCF5801FF7D5994218BF704708BF9042D2
:1050C00070474FF4001C1CEB430F38BF1CEB410F23
:1050D00001D2994270470FB40CBC03BCFFF7C1BEAC
:1050E00091EA030F10B581F000413FF55BAC83F00E
:1050F000004300F009B8000010B591EA030F48BF63
:1051000083F000433FF54EAC841A71EB030C07D2D9
:1051100012198CF0004C43EB0C03001B61EB0C01EB
:10512000DFF8A4E14FEA1154A4EB135C1EEA430F2D
:1051300018BF9EEA445F00F0B08023EA6E0352423B
:1051400021EA0451C3EB6E0338BF5B1EDCF1200E75
:1051500025D322FA0CFE10EB0E0043FA0CFE41EBB5
:105160000E01CCF1200E03FA0EFE10EB0E0051F1F1
:105170000001CCF1200E29D412FA0EF201EB0451F9
:10518000BDE8104058BF7047401C1CBFB2F1004F33
:10519000704700280CBF491C20F00100704712EB3B
:1051A000020E43EB030218BF4FF0010E4EEA42021B
:1051B000ACF1200CDCF11E0E54D943FA0CFE10EBBE
:1051C0000E0051F1FF31CCF11E0ED5D50EF1010EBE
:1051D00012FA0EFE404141EB010101EB445C5FEA33
:1051E0005C5C10D910EBDE7001EB045138BFBEF1EE
:1051F000004FBDE8104018BF704700280CBF491C85
:1052000020F00100704730D24FEAD42C11F5001184
:1052100024F400641BD0B1FA81F20B3AA41AA41E44
:10522000D2F12003914030FA03F31943904001EB8F
:10523000CC71002C01EB0451BDE81040A8BF7047B1
:1052400001F1C0414FF0000001F000417047B0FA99
:1052500080F310FA03F100D110BDE41A173C4805A1
:10526000C90AE4E701EB045110BD491001EB0451F8
:10527000BDE810404FEA300002E04FF000017047F7
:105280004A0008BF0042F8D0B2F5001F28BF70479F
:1052900001F000414FF0000070479EEA445F07D0E4
:1052A00011EA5E0FBDE8104004BF002100207047E6
:1052B000BDE8104070B5FFF789FE00BF40DFF63E45
:1052C00083F00041104670470000E0FF4FF47F0C70
:1052D0001CEAD0121EBF1CEAD11392EA0C0F93EA0B
:1052E0000C0F00F0858090EA010F48BF42F48072F5
:1052F00040F4000C41F400002CF07F4120F07F408E
:1053000000B58142A2EB03020FF2081CACEB504E39
:10531000C0F100009EF800E04FEA4E0E00FB0EFCCC
:1053200038BF49004FEA2C1C02F5FA020CFB0EF3C1
:105330004FEACE1E4FEA112C4FEAC1210EEB635EFD
:1053400042EB22420EFB0CFC4FEA1C5300FB031104
:105350004FEA112C4FEA01310EFB0CFC4FEADC4CFA
:1053600000FB0C11C14228BF09184CEB03335DF858
:1053700004EB10EB410143EBC250B2F57C0F38BF98
:10538000704729D512F0F00F1CBF00F1C04000F0AB
:1053900000407047008182838485868788898B8C52
:1053A0008D8E8F919293959697999A9C9D9FA0A28E
:1053B000A3A5A7A8AAACAEB0B2B3B5B7B9BCBEC0DE
:1053C000C2C5C7C9CCCED1D4D7D9DCDFE2E6E9EC7F
:1053D000F0F3F7FAFE0000004FEA400C0CF1807C7D
:1053E000BCF17E4F28BF7047B0F1C04000F02BB930
:1053F00090EA010F0CEAD11348BF42F48072624573
:1054000038BF634507D213F47F0F16D080EA01003E
:1054100000F00040704710B500F0CFF8097EFC3E68
:1054200000F005B880EA010000F00040704780EA13
:10543000010000F0004000F006B912F47F0F04BF35
:105440000248704780EA010000F0FDB80000C07F0C
:1054500041000B0ED3F19E0208D950F400034FEA2D
:10546000032323FA02F048BF4042704710B500F012
:10547000A4F800BF49922480002070476FF00042DA
:1054800082EA20007047000010F0004148BF40420F
:10549000B0FA80F310FA03F2C3F19D030BD051EA86
:1054A000C35101EB1220530638BF704700F10100D1
:1054B00008BF20F0010070474FF47F0C1CEAD012A7
:1054C0001EBF1CEAD11392EA0C0F93EA0C0F00F0F6
:1054D000478090EA010F48BF42F480724FF0004CC1
:1054E0004CEA00204CEA012102EB0302A0FB01136D
:1054F000A2F50002002918BF43F001035B0028BF9A
:105500004FEA330342EB22425FEA132C4CEBC250CA
:105510002EBFBCEB436FB2F57C0F70474FEA036CB4
:10552000BCF1004F08BF20F00100B2F57C0F38BF7E
:1055300070470BD582F0FF0212F5803FC8BF70475D
:1055400000F1C040D8BF00F00040704700F5000CEB
:105550005FEA4C0C48BF7047B0F1C04000F073B830
:1055600090EA010F0CEAD11348BF42F48072624501
:1055700038BF634504D280EA010000F00040704764
:1055800010B500F01AF800BF8900013E00F007B81E
:1055900000F009B85FEA410C5FEA1C6C08D080EAB1
:1055A000010000F050B85FEA400C5FEA1C6CF6D1D5
:1055B0004FF00040A0F5800070470EF1020E2EF073
:1055C000030E5EF8044B244204D44FEA4102B2F1C8
:1055D0007F4F11D84FEA4003B3F17F4F0CD80ED163
:1055E0004FEAD07CB2F17F4F0CEB4C0C0CF1020C6B
:1055F00008BF4CEBD17C04E04FF0080C01E04FEA0F
:10560000D17C0CEB4C0324FA03F404F00704B4F14E
:10561000040C06D20EEB840CBDE810404CF0010CDB
:105620006047DFE80CF0070802024FF00040A0F5E9
:10563000800010BD0846420018BFD2F1807288BFBA
:1056400000F0004010BDFF2141EAD050C005704776
:1056500002030405060708090A0B0C0D0E0F1010B3
:105660000102000000000000000001020304060720
:105670000809000000000102030400009C56000815
:10568000000000205000000028010008EC5600082F
:1056900050000020900800004401000801000000B4
:1056A000000000000000C8420000000000000000F0
:1056B00000000000000000000000000000000000EA
:1056C00000000000000000000000000000000000DA
:1056D0002A0000010000000000000000000000009F
:0C56E00010000000010000000024F40095
:04000005080000ED02
:00000001FF
