:020000040800F2
:100000000050002095310008410600084306000812
:1000100045060008470600084906000800000000E1
:100020000000000000000000000000004B06000877
:100030004D060008000000004F06000851060008A9
:10004000DD310008DD310008DD310008DD31000858
:10005000DD310008DD310008DD310008DD31000848
:10006000DD310008DD310008DD310008DD31000838
:10007000DD310008DD310008DD310008DD31000828
:10008000DD310008DD310008DD310008DD31000818
:10009000DD310008DD310008DD310008DD31000808
:1000A0005906000869060008790600088906000854
:1000B000DD310008DD310008DD3100089906000857
:1000C000A9060008DD310008DD310008DD31000837
:1000D000DD310008DD310008B9060008DD31000817
:1000E000DD310008DD310008DD31000800000000CE
:1000F0000000000000000000000000000000000000
:0C01000000000000000000005FF808F1A3
:10010C0010B5054C237833B9044B13B10448AFF345
:10011C0000800123237010BD10000020000000009F
:10012C003832000808B5034B1BB103490348AFF341
:10013C00008008BD000000001400002038320008C8
:10014C0030B589B0002404940594069407941D4B93
:10015C009A6942F010029A619A6902F010020092B8
:10016C00009A9A6942F020029A619A6902F0200280
:10017C000192019A9A6942F004029A619A6902F01A
:10018C0004020292029A9A6942F008029A619B69EF
:10019C0003F008030393039B0B4D22464FF420619D
:1001AC00284600F0C5FC4FF420630493012305930B
:1001BC0006940223079304A9284600F0A9FB09B072
:1001CC0030BD00BF001002400008014038B50546A4
:1001DC000C4602F087F8B0FBF5F0064A1368D862BB
:1001EC00D06004FB00F40449A1FB042464095C63A3
:1001FC0038BD00BF840000201F85EB5108B5026894
:10020C00094B9A4200D008BD084A136801331360A9
:10021C00074A12689342F6DB0021064802F06CFC98
:10022C00024B00221A60EEE7002C01402C0000204B
:10023C00000000208400002072B6FEE710B596B0D6
:10024C0000241294139414941594109411940994FA
:10025C000A940B940C940D940E940F942022214626
:10026C0001A802F0DBFF2E482E4B03604460846033
:10027C004FF6FF73C360046144618023836102F015
:10028C0039FA00283ED14FF48053129312A9244816
:10029C0002F033FB002837D1214802F057FA00282E
:1002AC0034D100231093119310A91D4802F066FC61
:1002BC0000282DD16023099300220A920B920C92F4
:1002CC000D920E920F9209A9154802F09DFA08BBE7
:1002DC00082209A9124802F097FAE8B90023019301
:1002EC0002930393049305934FF4005206920893E0
:1002FC0001A90B4802F076FC80B9094800F02EF9F0
:10030C0016B010BDFFF798FFFFF796FFFFF794FFAD
:10031C00FFF792FFFFF790FFFFF78EFFFFF78CFFC1
:10032C0084000020002C014008B50A480A4B0360E9
:10033C000A4B436000238360C3604FF48042026128
:10034C0043618361C361036200F0C8FD00B908BD5D
:10035C00FFF772FF3000002000540040A08601001F
:10036C0008B50A480A4B03604FF4E133436000239D
:10037C008360C36003610C2242618361C36102F03C
:10038C0003FD00B908BDFFF757FF00BFCC000020EC
:10039C000044004000B591B02422002107A802F0CF
:1003AC003DFF0023019302930393049305930223CF
:1003BC00069301230A9310230B9306A801F0AAFCC1
:1003CC0068B90F23019300210291039104910591C7
:1003DC0001A801F0D1FE20B911B05DF804FBFFF7C4
:1003EC002BFFFFF729FF000008B500F08FF9FFF78E
:1003FC00D1FFFFF7A5FEFFF721FFFFF795FFFFF7F2
:10040C00AFFF074C0021204602F008FB204602F00B
:10041C0041F832214FF47A70FFF7D8FEFEE700BFA7
:10042C008400002082B00E4B9A6942F001029A615E
:10043C009A6902F001020092009ADA6942F0805245
:10044C00DA61DB6903F080530193019B054A536821
:10045C0023F0E06343F00073536002B0704700BFB9
:10046C00001002400000014010B586B0002302933A
:10047C000393049305930268194B9A4201D006B07A
:10048C0010BD184CA36943F00803A361A36903F0E2
:10049C0008030093009BC0230293122303930323AE
:1004AC00059302A9104800F033FAE36943F40013F2
:1004BC00E361E36903F400130193019B00221146ED
:1004CC001F2000F059F91F2000F08AF90022114674
:1004DC00202000F051F9202000F082F9CFE700BF76
:1004EC000054004000100240000C014002681A4BFE
:1004FC009A4200D0704700B583B003F564439A6903
:10050C0042F400629A619B6903F400630193019BBE
:10051C0000221146182000F02FF9182000F060F985
:10052C0000221146192000F027F9192000F058F983
:10053C00002211461A2000F01FF91A2000F050F981
:10054C00002211461B2000F017F91B2000F048F97F
:10055C0003B05DF804FB00BF002C014000B587B070
:10056C000023029303930493059302680D4B9A4264
:10057C0002D007B05DF804FB03F564439A6942F0BE
:10058C0004029A619B6903F004030193019B4FF4ED
:10059C00A063029302230393059302A9024800F07F
:1005AC00B7F9E6E7002C01400008014030B587B0F0
:1005BC000023029303930493059302681B4B9A4206
:1005CC0001D007B030BD03F5E633DA6942F40032EE
:1005DC00DA61DA6902F400320092009A9A6942F008
:1005EC0004029A619B6903F004030193019B0423A9
:1005FC00029302230393032305930D4D02A928466E
:10060C0000F086F9082302930024039404940DEB64
:10061C000301284600F07CF922462146262000F0F2
:10062C00ABF8262000F0DCF8CBE700BF004400401C
:10063C0000080140FEE7FEE7FEE7FEE7FEE7704735
:10064C007047704708B500F073F808BD08B502484C
:10065C0001F059FF08BD00BF8400002008B5024816
:10066C0001F051FF08BD00BF8400002008B502480E
:10067C0001F049FF08BD00BF8400002008B5024806
:10068C0001F041FF08BD00BF8400002008B50248FE
:10069C0001F0F2F908BD00BF3000002008B5024897
:1006AC0001F0BAFA08BD00BF3000002008B50248BE
:1006BC0002F026FC08BD00BFCC00002070470000F3
:1006CC0010B504460E4B18784FF47A73B3FBF0F365
:1006DC000C4A1068B0FBF3F000F090F868B90F2CDE
:1006EC0001D901200AE0002221464FF0FF3000F032
:1006FC0043F8054B1C60002000E0012010BD00BF3A
:10070C0008000020040000200C00002008B5074A57
:10071C00136843F010031360032000F01BF80F2044
:10072C00FFF7CEFFFFF77EFE002008BD0020024041
:10073C00034A1168034B1B780B441360704700BFCE
:10074C001401002008000020014B1868704700BFFE
:10075C0014010020074AD36823F4E0631B041B0C2C
:10076C00000200F4E060034343F0BF6343F4003342
:10077C00D360704700ED00E030B4174BDB68C3F377
:10078C000223C3F10704042C28BF04241D1D062DCD
:10079C0018D9033B4FF0FF3505FA04F421EA0401A4
:1007AC00994005FA03F322EA0303194300280BDBF3
:1007BC000901C9B200F1604000F5614080F80013F6
:1007CC0030BC70470023E5E700F00F000901C9B207
:1007DC00024B1954F4E700BF00ED00E014ED00E00B
:1007EC00002807DB00F01F02400901239340024A56
:1007FC0042F82030704700BF00E100E00138B0F152
:10080C00807F0AD2064B5860064AF02182F82310EA
:10081C000020986007221A6070470120704700BFC3
:10082C0010E000E000ED00E090F82130DBB2022B8C
:10083C0006D004238363002380F820300120704706
:10084C000268136823F00E0313600268136823F028
:10085C0001031360036CC16B012202FA03F34B60BA
:10086C0080F82120002380F82030184670470000C3
:10087C0008B590F82130DBB2022B03D0042383633C
:10088C00012008BD0268136823F00E031360026890
:10089C00136823F0010313600368194A934214D0C0
:1008AC00143293421FD0143293421ED0143293420E
:1008BC001ED0143293421ED01432934202D04FF009
:1008CC00807203E04FF4801200E001220D4B5A605D
:1008DC00012380F82130002380F82030436B6BB16A
:1008EC0098470020CDE71022F0E74FF48072EDE737
:1008FC004FF48052EAE74FF48032E7E70020C0E77C
:10090C00080002400000024090F8210070470000EF
:10091C00F0B482B000252C46A3E07F4FBB4210D030
:10092C0007D97E4FBB420CD007F58037BB4208D0AD
:10093C0013E0A7F58017BB4203D007F57027BB4225
:10094C0007D18B68002B58D0012B51D04261082560
:10095C0003E0A7F58017BB42F3D0FF2E4FD8844697
:10096C00FF2E4FD8A200DCF800300F27974023EA67
:10097C00070305FA02F21343CCF800304B6813F06E
:10098C00805F6DD0664B9A6942F001029A619B6957
:10099C0003F001030193019BA208971C614B53F8D0
:1009AC00273004F00307BF004FF00F0C0CFA07FCC4
:1009BC0023EA0C0C5C4B98422AD003F580639842D6
:1009CC0000F08A8003F58063984200F0878003F57D
:1009DC00806398421AD004231BE0CD68BDE7CD6834
:1009EC000435BAE7CD680835B7E7CD680C35B4E700
:1009FC0002610825B1E70025AFE70425ADE700F15A
:100A0C00040CADE7A4F108029200ACE7032300E06C
:100A1C000023BB4043EA0C030232424F47F822301A
:100A2C004B6813F4801F5BD0404A93683343936048
:100A3C004B6813F4001F59D03C4AD3683343D3603E
:100A4C004B6813F4003F57D0384A53683343536014
:100A5C004B6813F4803F55D0344A13681E4316601C
:100A6C0001340B6833FA04F252D00122A24003EA9B
:100A7C00020632EA0303F3D14B68122B3FF64DAF5B
:100A8C00122B3FF66AAF01A757F823F04F09000865
:100A9C00E7090008F1090008030A000867090008C3
:100AAC00670900086709000867090008670900085A
:100ABC00670900086709000867090008670900084A
:100ACC00670900086709000867090008670900083A
:100ADC00EB090008F709000801239AE7022398E7BD
:100AEC00124A936823EA06039360A1E70F4AD3687E
:100AFC0023EA0603D360A3E70C4A536823EA0603F0
:100B0C005360A5E7094A136823EA06061660A7E7AF
:100B1C0002B0F0BC704700BF000022100000311082
:100B2C000010024000000140000801400004014098
:100B3C000AB10161704709040161704703685A6981
:100B4C0012F0800F01D000221A61704790F83E30ED
:100B5C00DBB2402B10D00369B3F5804F1BD0036D73
:100B6C00002B39D1436CC3F3C813026803F006039E
:100B7C0043F0F00313617047036D2BB9436C0268AB
:100B8C0003F0FE0313617047436C026843F00103EA
:100B9C00DBB21361704790F83D30DBB2212B0FD0E4
:100BAC00436C026843F00103DBB21361436B6BB11E
:100BBC009B6A5BB10268536843F4006353607047EF
:100BCC00436C026803F0FE031361EFE7836B33B1F0
:100BDC009B6A002BEED102E0036D012B00D0704715
:100BEC00436CC3F3C813026803F0060343F0F1032C
:100BFC001361F4E7436C0268DBB21361436B3BB1E6
:100C0C009B6A2BB10268536843F4006353607047CE
:100C1C00836B002BFBD09B6A002BF3D1F7E710B44E
:100C2C008DB090F83E30DAB2C16A046B90F83D306A
:100C3C00DBB2222B0AD000230B9303685A690B9268
:100C4C009B690B930B9B0DB010BC7047036D0BB9DC
:100C5C00402A17D0036D1BB90369B3F5404F19D067
:100C6C00438D9BB2002B25D1039303685A690392E1
:100C7C009A690392039A1A6842F400721A6000236C
:100C8C000365E0E7019303685A6901929B6901933C
:100C9C00019BD8E70023029303685A6902929A6970
:100CAC000292029A1A6842F480721A60036D013340
:100CBC000365C8E7438D9BB2012B25D0438D9BB2B6
:100CCC00022B7BD00268136843F4806313600368C3
:100CDC005A6812F4006F0ED011F5803F07D001292D
:100CEC0005D0082903D0102901D0202903D15A6836
:100CFC0042F480525A6000230A9303685A690A929C
:100D0C009B690A930A9BBAE711F5803F11D0082919
:100D1C0034D0202932D0122C2ED0042940D00229D4
:100D2C003ED010293CD00268136823F48063136012
:100D3C003BE00268136823F48063136003685A680D
:100D4C0012F4006F0CD01A6822F480621A6000232F
:100D5C00049303685A6904929B690493049B8EE77D
:100D6C00002205925A6905929A690592059A1A68A9
:100D7C0042F400721A6082E70129CED0026813682F
:100D8C0023F4806313600023079303685A69079266
:100D9C009A690792079A1A6842F400721A606EE711
:100DAC000268136843F4806313600023069303689E
:100DBC005A6906929B690693069B60E7042915D035
:100DCC00022913D0102911D00268136843F4006370
:100DDC0013600023089303685A6908929A69089271
:100DEC00089A1A6822F480621A600CE00268136890
:100DFC0043F4806313600023099303685A690992D2
:100E0C009B690993099B03685A6812F4006F3FF4BD
:100E1C0036AF11F5803F08D0012906D0082904D03F
:100E2C00102902D020297FF42AAF5A6842F480524C
:100E3C005A6024E7438D9BB25BB1426A0368127817
:100E4C001A61436A01334362438D9BB2013B9BB2EF
:100E5C0043857047438D9BB25BB103681A69436A43
:100E6C001A70436A01334362438D9BB2013B9BB2C0
:100E7C004385704782B0002301930E4B1B68DB083F
:100E8C000D4AA2FB03231B0A03EB83030193019B73
:100E9C00013B0193019B33B103681B6813F4007F82
:100EAC00F5D1002004E0036C43F02003036401201F
:100EBC0002B070470400002089B5F814C36AB3F57A
:100ECC002A0F04D0C36AB3F12A4F03D07047012311
:100EDC00C36270470823C362F8E70000002800F0E3
:100EEC00CC80F8B5044690F83D30002B77D0242305
:100EFC0084F83D302268136823F0010313602268E4
:100F0C00136843F4004313602268136823F400430E
:100F1C00136001F0EDF962685A4B9A4264D85A4B4F
:100F2C0098428CBF00230123002B40F0A880574D22
:100F3C00A5FB0035AF0C2668716821F03F0141EA32
:100F4C009541716021680B6A23F03F0365684D4A37
:100F5C0095424FD87A1C13430B622568E96921F43A
:100F6C004F4121F0FF016368464A93424CD8013847
:100F7C005B00B0FBF3F0013040F6FC73184278D004
:100F8C00C0F30B030B43EB6121680B6823F0C00328
:100F9C00E269206A024313430B6021688B6823F4D7
:100FAC00034323F0FF032269E068024313438B6081
:100FBC002168CB6823F0FF036269A06902431343E5
:100FCC00CB602268136843F0010313600020206497
:100FDC00202384F83D30206384F83E00F8BD80F86F
:100FEC003C30FFF741FA82E7294B98428CBF002333
:100FFC00012399E74FF4967202FB07F2254DA5FBEE
:10100C00025292090132A6E7A268BAB9461E03EB56
:10101C004307B6FBF7F60136C6F30B06B6FA86F6AF
:10102C00760946BBC2B9421E03EB4303B2FBF3F293
:10103C000132C2F30B0242F40043A3E7461E03EB5A
:10104C00830707EB8707B6FBF7F60136C6F30B06EB
:10105C00B6FA86F67609E4E7421E03EB830303EB4C
:10106C008303B2FBF3F20132C2F30B0242F44043AE
:10107C0088E7042386E7012384E7012070470120D9
:10108C00ACE700BFA08601007F841E0083DE1B43FB
:10109C00FF083D00D34D621070477047704708B58C
:1010AC0090F83D30DAB2438D9BB283B1416A03684C
:1010BC0009781961436A01334362438D9BB2013B4A
:1010CC009BB24385438D9BB20BB9292A00D008BD36
:1010DC000268536823F4806353602123036328233D
:1010EC0080F83D30FFF7DAFFF1E7704708B590F86C
:1010FC003D30DAB2438D9BB283B103681969436A00
:10110C001970436A01334362438D9BB2013B9BB21E
:10111C004385438D9BB20BB92A2A00D008BD0268C7
:10112C00536823F48063536022230363282380F8DD
:10113C003D30FFF7DAFFF1E7704700B583B090F868
:10114C003D3003F02803282B0CD0002301930268B8
:10115C005169019192690192019A80F83C3003B077
:10116C005DF804FB0268536823F48063536011F04C
:10117C00040F0BD0002311F0800F09D182890021BC
:10118C0080F83C101946FFF7D7FFE8E70123F2E798
:10119C00028BF4E77047000010B5044690F83D3020
:1011AC00DBB2C26A082A01D0202A01D1282B06D032
:1011BC00212B1FD023686FF480625A6110BD1D4B28
:1011CC00E3622268536823F4E063536023686FF48E
:1011DC0080625A612268136823F4806313600023D1
:1011EC002363202284F83D2084F83E302046FFF70C
:1011FC00D1FFE3E70F4BE36221232363202384F821
:10120C003D30002384F83E302268536823F4E063B9
:10121C00536023686FF480625A612268136823F468
:10122C00806313602046FFF789FC2046FFF736FFEA
:10123C00C4E700BF0000FFFF704708B5C26A90F812
:10124C003D30DBB2212B00D008BD438D9BB263B186
:10125C00426A036812781A61436A01334362438D10
:10126C009BB2013B9BB24385EEE7082A04D0202AAF
:10127C0002D012F5803F19D10268536823F4E06361
:10128C0053600268136843F4007313600023036314
:10129C00202380F83D3090F83E30DBB2402B15D047
:1012AC00002380F83E30FFF7F7FECDE70268536865
:1012BC0023F4E063536011230363002380F83E3072
:1012CC00202380F83D30FFF7E7FEBDE7002380F8D0
:1012DC003E30FFF7B1FFB7E708B590F83D30026D2F
:1012EC009AB9C36C012B08D0836CC3F30723026833
:1012FC001361036D0133036508BD836C0268DBB2B7
:10130C001361036D02330365F6E7DBB2026D012A4C
:10131C0023D0026D022A3ED1222B26D0428D92B2CE
:10132C000AB1212B2AD0428D92B2002AE4D1212B72
:10133C00E2D10268536823F4E063536002681368D7
:10134C0043F40073136000230363202280F83D20D4
:10135C0080F83E30FFF770FFCEE7836C0268DBB29B
:10136C001361036D01330365C6E70268136843F428
:10137C0080731360036D01330365BDE7426A036834
:10138C0012781A61436A01334362438D9BB2013B6D
:10139C009BB24385B0E7FFF7D1FBADE710B590F8F2
:1013AC003D30DBB290F83E20D2B2C46A018D09B94F
:1013BC00212B04D0212B3BD0402A37D010BD082C38
:1013CC0004D0202C02D014F5803F19D10268536848
:1013DC0023F4E06353600268136843F400731360F2
:1013EC0000230363202380F83D3090F83E30DBB2BD
:1013FC00402B15D0002380F83E30FFF74DFEDDE783
:10140C000268536823F4E0635360112303630023E1
:10141C0080F83E30202380F83D30FFF73DFECDE7CD
:10142C00002380F83E30FFF707FFC7E7222BC5D11A
:10143C00438D9BB22BB90268536823F480635360CD
:10144C00BCE790F83E30DBB2402B0CD0426A03680C
:10145C0012781A61436A01334362438D9BB2013B9C
:10146C009BB24385AAE7FFF737FFA7E7704708B59C
:10147C00C26A438D9BB2042B14D0438D9BB2032BB9
:10148C0022D0438D9BB2022B39D003681A69436A70
:10149C001A70436A01334362438D9BB2013B9BB28A
:1014AC00438510E00268536823F48063536003683B
:1014BC001A69436A1A70436A01334362438D9BB2C3
:1014CC00013B9BB2438508BD01684B6823F48063E4
:1014DC004B60042A06D0022A04D00268136823F455
:1014EC008063136003681A69436A1A70436A013394
:1014FC004362438D9BB2013B9BB24385E3E7012AD8
:10150C000BD0102A09D0042A38D0022A36D002680F
:10151C00136843F40073136004E00268136823F447
:10152C008063136003681A69436A1A70426A531C19
:10153C004362438D9BB2013B9BB2438503681B699D
:10154C005370436A01334362438D9BB2013B9BB2A0
:10155C0043850268536823F440735360202380F85A
:10156C003D3090F83E30DBB2402B0DD0002380F89C
:10157C003E3012230363FFF790FDA4E70268136863
:10158C0043F480631360CDE7002380F83E3003639F
:10159C00FFF76CFF97E7704790F83D30DBB2222BDA
:1015AC0000D0704710B50446438D9BB2032B15D960
:1015BC0003681A69436A1A70436A01334362438DA4
:1015CC009BB2013B9BB24385438D9BB2032B0FD146
:1015DC000268536823F48063536009E0C26A022AEC
:1015EC0001D0012B05D92268536823F48063536022
:1015FC0010BDFFF73FFC00282ED12268136823F49E
:10160C00806313602268536823F4E063536023689B
:10161C001A69636A1A70636A01336362638D9BB2E1
:10162C00013B9BB26385202384F83D3094F83E3017
:10163C00DBB2402B08D0002384F83E301223236306
:10164C002046FFF72AFDD3E7002384F83E302363BE
:10165C002046FFF70BFFCBE72268536823F4E063C7
:10166C00536023681A69636A1A70636A0133636290
:10167C00638D9BB2013B9BB26385202384F83D3084
:10168C00002384F83E302046FFF785FFB0E7704713
:10169C0000B583B000230193406A90F83D20D2B28C
:1016AC00324B1B68DB083249A1FB03131B0A03EB0B
:1016BC008303C3EBC3030193019B43B1019B013B28
:1016CC00019303681B6813F4007FF5D103E0036CEE
:1016DC0043F020030364436B0BB100219962836BCD
:1016EC000BB10021996201680B6823F480630B60D5
:1016FC0000234385436B0BB100215963836B0BB102
:10170C000021596301680B6823F001030B6090F80A
:10171C003D30DBB2602B0ED002F02802282A14D008
:10172C00202380F83D30002380F83E30FFF733FF54
:10173C0003B05DF804FB202380F83D30002380F8D3
:10174C003E300364FFF7A3FFF2E70268136843F02F
:10175C00010313600268136843F480631360002371
:10176C000363282380F83D30E0E700BF040000202D
:10177C0089B5F81410B5044690F83D30DBB290F8FA
:10178C003E20D2B2102A36D0402A34D003F02802A0
:10179C00282A38D02268526812F4006F07D1602BC7
:1017AC0005D0202384F83D30002384F83E300023FC
:1017BC00236323685A6812F4006F48D05A6822F4E5
:1017CC0000625A60626B92F82130DBB2012B20D0A0
:1017DC00444B5363606BFFF74BF8002849D02268E9
:1017EC00136823F001031360202384F83D30606BF1
:1017FC00436B98473DE0222BC8D121680A6822F43C
:10180C0000620A60C2E700232363282384F83D307A
:10181C00CFE7A36B334A5A63A06BFFF729F840B3A9
:10182C0023685A6912F0400F05D01A69636A1A705E
:10183C00636A013363622268136823F00103136047
:10184C00202384F83D30A06B436B984711E094F84B
:10185C003D20D2B2602A1FD05A6912F0400F05D039
:10186C001A69636A1A70636A013363622046FFF770
:10187C0092FE236C13F00F0F04D02268536823F4EC
:10188C00E063536094F83D30DBB2226C12F0040F2D
:10189C0001D0282B18D010BD202284F83D20002226
:1018AC0022645A6912F0400F05D01A69636A1A70E3
:1018BC00636A013363622268136823F001031360C7
:1018CC002046FFF7E4FED4E7074BE36200232363D3
:1018DC00202284F83D2084F83E302046FFF75AFC45
:1018EC00D9E700BF9D1600080000FFFF30B583B09C
:1018FC00044690F83D50EDB20268536823F4E0635F
:10190C0053600023019303685A6901921A6842F0EC
:10191C0001021A60019B0268136823F48063136050
:10192C0003685A6812F4006F38D0222D21D02A2D6A
:10193C001FD0426B1268526892B24285428D92B2AD
:10194C001AB1026C42F0040202645A6822F400627A
:10195C005A60606BFEF7D8FF01281FD0636B444AB6
:10196C005A63606BFEF784FFC0B1606B436B9847A2
:10197C0014E0A26B1268526892B26285628D92B2C8
:10198C001AB1226C42F0040222645A6822F40062FA
:10199C005A60A06BFEF7B8FF012842D1638D9BB251
:1019AC0033B323685A6912F0040F0AD01A69636AB8
:1019BC001A70636A01336362638D9BB2013B9BB205
:1019CC00638523685A6912F0400F0AD01A69636A5A
:1019DC001A70636A01336362638D9BB2013B9BB2E5
:1019EC006385638D9BB21BB1236C43F004032364AA
:1019FC00236C13BB2A2D25D094F83D30DBB2282B59
:101A0C0029D0236B222B01D0222D19D10023236343
:101A1C00202284F83D2084F83E302046FFF765FBF9
:101A2C000EE0A36B124A5A63A06BFEF721FF00284D
:101A3C00B4D0A06B436B9847B0E72046FFF79AFEF3
:101A4C0003B030BD00232363282384F83D302046A7
:101A5C00FFF74BFBD0E7074BE36200232363202205
:101A6C0084F83D2084F83E302046FFF793FBE7E7EF
:101A7C009D1600080000FFFFF8B504460268556883
:101A8C00C66A90F83E30DBB290F83D10C8B2102B0D
:101A9C0013D0402B11D0236C002B7AD0536900212A
:101AAC0013F0020F78D015F4007F75D0236C03B1BE
:101ABC0091692046FFF741FBF8BDD2F818C0516977
:101ACC0011F0010705D1B6F52A0FF5D0B6F12A4F62
:101ADC00F2D017B115F4007F29D111F0080F02D004
:101AEC0015F4007F2AD111F0020F02D015F4007FFB
:101AFC0028D11CF0040F31D0526812F4006FDBD1E6
:101B0C0011F0800F05D015F4806F02D011F0040F86
:101B1C001CD011F0040FCFD015F4007FCCD02128AD
:101B2C0018D0402BC8D12046FFF7D6FBC4E720467F
:101B3C00FFF7C4F92046FFF709F8BDE72046FFF789
:101B4C0059F8B9E72046FFF76AF8B5E72046FFF7E2
:101B5C0025FCB1E72046FFF770FBADE7536813F4A3
:101B6C00006FA9D111F0400F05D015F4806F02D091
:101B7C0011F0040F09D011F0040F9DD015F4007F63
:101B8C009AD02046FFF773FC96E72046FFF704FD3A
:101B9C0092E79169536983E713F0100F02D015F4A3
:101BAC00007F18D121281AD0292818D013F0400F03
:101BBC0005D015F4806F02D013F0040F28D013F069
:101BCC00040F3FF479AF15F4007F3FF475AF204656
:101BDC00FFF740F970E72046FFF788FE6CE713F03B
:101BEC00800F05D015F4806F02D013F0040F0BD0CA
:101BFC0013F0040F3FF460AF15F4007F3FF45CAFBB
:101C0C002046FFF717F957E72046FFF748FA53E746
:101C1C002046FFF76BFA4FE7F8B5044603685D6999
:101C2C005F6890F83E20D2B215F4807F0CD017F488
:101C3C00807F41D06FF48071596101680B6843F467
:101C4C0000430B60012600E0002615F4007F08D04D
:101C5C0017F4807F05D046F0020623686FF40071FC
:101C6C00596115F4806F19D017F4807F16D0638DED
:101C7C0099B294F83D30DBB2206B202A1ED0236839
:101C8C006FF48061596146F00406102A01D0402A95
:101C9C0004D12268136843F40073136015F4006FC9
:101CAC0008D017F4807F05D046F0080623686FF43F
:101CBC0000625A6186B9F8BD0026C6E70029DED15C
:101CCC00212B05D0292B03D0282BD8D12128D6D1D4
:101CDC002046FFF761FAE1E7236C1E432664204699
:101CEC00FFF748FDE7E7000082B0084B1B68084A85
:101CFC00A2FB03235B0A00FB03F3019300BF019BD0
:101D0C005A1E0192002BF9D102B07047040000203A
:101D1C00D34D6210002800F0F18170B582B00446FA
:101D2C00036813F0010F2CD0AA4B5B6803F00C0373
:101D3C00042B1DD0A74B5B6803F00C03082B12D0AF
:101D4C006368B3F5803F41D0002B55D103F180433C
:101D5C0003F504331A6822F480321A601A6822F4EC
:101D6C0080221A6037E09B4B5B6813F4803FE7D00E
:101D7C00984B1B6813F4003F03D06368002B00F0F2
:101D8C00BF81236813F0020F75D0924B5B6813F080
:101D9C000C0F5FD08F4B5B6803F00C03082B54D0F7
:101DAC002369002B00F089808B4B01221A60FEF70F
:101DBC00CBFC0546874B1B6813F0020F74D1FEF762
:101DCC00C3FC401B0228F5D903209EE1814A13680D
:101DDC0043F480331360636843B3FEF7B5FC0546E8
:101DEC007C4B1B6813F4003FCBD1FEF7ADFC401BC2
:101DFC006428F5D9032088E1B3F5A02F09D0754BE1
:101E0C001A6822F480321A601A6822F480221A604E
:101E1C00E1E703F18043A3F53C331A6842F48022D6
:101E2C001A601A6842F480321A60D4E7FEF78CFC10
:101E3C000546684B1B6813F4003FA2D0FEF784FCE8
:101E4C00401B6428F5D903205FE1624B5B6813F4F7
:101E5C00803FA5D15F4B1B6813F0020F03D02369A1
:101E6C00012B40F04F815B4A136823F0F803616942
:101E7C0043EAC1031360236813F0080F32D0A3693F
:101E8C00002B45D0554B01221A60FEF75DFC054630
:101E9C00504B5B6A13F0020F21D1FEF755FC401B2F
:101EAC000228F5D9032030E14A4A136823F0F803DD
:101EBC00616943EAC1031360DDE7474B00221A60F6
:101ECC00FEF742FC0546434B1B6813F0020FD2D0C1
:101EDC00FEF73AFC401B0228F5D9032015E101203E
:101EEC00FFF702FF236813F0040F00F09780394BC3
:101EFC00DB6913F0805F1DD1364BDA6942F08052FA
:101F0C00DA61DB6903F080530193019B012512E038
:101F1C00324B00221A60FEF717FC05462D4B5B6A0C
:101F2C0013F0020FDED0FEF70FFC401B0228F5D990
:101F3C000320EAE000252A4B1B6813F4807F11D0A4
:101F4C00E368012B22D0002B38D103F1804303F539
:101F5C0004331A6A22F001021A621A6A22F004028D
:101F6C001A6218E01E4A136843F480731360FEF77C
:101F7C00EBFB06461A4B1B6813F4807FE0D1FEF78F
:101F8C00E3FB801B6428F5D90320BEE0114A136AD9
:101F9C0043F001031362E36873B3FEF7D5FB064607
:101FAC000C4B1B6A13F0020F37D1FEF7CDFB801BD5
:101FBC0041F288339842F3D90320A6E0052B11D0C7
:101FCC00044B1A6A22F001021A621A6A22F0040205
:101FDC001A62E0E7001002400000424280044242D4
:101FEC00007000404D4B1A6A42F004021A621A6AE1
:101FFC0042F001021A62CEE7FEF7A6FB0646474BFB
:10200C001B6A13F0020F08D0FEF79EFB801B41F2F7
:10201C0088339842F3D9032077E0E5B9E369002BC4
:10202C0072D03E4A526802F00C02082A56D0022B9B
:10203C0017D03B4B00221A60FEF786FB0446374B49
:10204C001B6813F0007F47D0FEF77EFB001B0228B5
:10205C00F5D9032059E0314AD36923F08053D36179
:10206C00DCE72F4B00221A60FEF76EFB05462B4B6C
:10207C001B6813F0007F06D0FEF766FB401B02289E
:10208C00F5D9032041E0236AB3F5803F1AD02349E8
:10209C004B6823F47413226A606A024313434B6047
:1020AC001F4B01221A60FEF74FFB04461B4B1B68AB
:1020BC0013F0007F0ED1FEF747FB001B0228F5D969
:1020CC00032022E0154A536823F40033A1680B4324
:1020DC005360DCE7002018E0002016E0012B16D03E
:1020EC000E4B5B6803F48031226A914211D103F4E8
:1020FC007013626A93420ED1002006E001207047F3
:10210C00012002E0012000E0002002B070BD01209F
:10211C00FBE70120F9E70120F7E700BF00100240C0
:10212C00600042420F4B5B6803F00C02082A01D09E
:10213C000D487047C3F383420C498A5C13F4803F0B
:10214C000BD0084B5B68C3F340430949CB5C064892
:10215C0000FB02F0B0FBF3F07047064800FB02F006
:10216C00704700BF0010024000127A00683200086D
:10217C007832000800093D00002800F0A08070B5FE
:10218C000D460446524B1B6803F007038B420BD2DF
:10219C004F4A136823F007030B431360136803F0D3
:1021AC0007038B4240F08D80236813F0020F17D089
:1021BC0013F0040F04D0474A536843F4E0635360B0
:1021CC00236813F0080F04D0424A536843F4605359
:1021DC005360404A536823F0F003A1680B435360EB
:1021EC00236813F0010F31D06368012B20D0022B30
:1021FC0025D0384A126812F0020F64D035494A686B
:10220C0022F0030213434B60FEF79EFA0646314B55
:10221C005B6803F00C036268B3EB820F16D0FEF719
:10222C0093FA801B41F288339842F0D9032045E0A1
:10223C00284A126812F4003FE0D101203EE0254A02
:10224C00126812F0007FD9D1012037E0204B1B68B7
:10225C0003F00703AB420AD91D4A136823F00703A6
:10226C002B431360136803F00703AB422DD1236893
:10227C0013F0040F06D0174A536823F4E063E168A7
:10228C000B435360236813F0080F07D0114A5368AF
:10229C0023F46053216943EAC1035360FFF742FF03
:1022AC000C4B5B68C3F303130B4AD35CD8400B4B4A
:1022BC0018600B4B1868FEF703FA002070BD012064
:1022CC0070470120FAE70120F8E70120F6E700BF8C
:1022DC000020024000100240503200080400002090
:1022EC000C000020014B1868704700BF0400002050
:1022FC0008B5FFF7F7FF044B5B68C3F30223034AEF
:10230C00D35CD84008BD00BF00100240603200080A
:10231C0008B5FFF7E7FF044B5B68C3F3C223034A1E
:10232C00D35CD84008BD00BF0010024060320008EA
:10233C0070B4036A026A22F0010202624668826982
:10234C0022F073020C6844EA020523F002028B6847
:10235C0013430D4CA04209D00B4CA0420DD046604B
:10236C0085614A684263036270BC704723F00803BE
:10237C00CA68134323F00403EEE726F440764A6957
:10238C0032438E691643EAE7002C014030B4036AED
:10239C00026A22F4807202624568C26922F07302FA
:1023AC000C68224323F400738C6843EA04230F4C1B
:1023BC00A04209D00D4CA0420ED04560C2614A68C3
:1023CC00C263036230BC704723F40063CC6843EAF9
:1023DC00042323F48063EDE725F440554C6945EA6A
:1023EC0004158C6945EA0415E7E700BF002C014091
:1023FC0030B4036A026A22F4805202624468C269F1
:10240C0022F4E6420D6842EA052223F400538D685B
:10241C0043EA0533074DA84206D04460C2614A68BE
:10242C000264036230BC704724F480444D6944EA72
:10243C008514F2E7002C014030B4036A056A25F0DC
:10244C0001050562846924F0F00444EA021423F0C7
:10245C000A030B438461036230BC704730B4036AD7
:10246C00056A25F010050562846924F4704444EA79
:10247C00023423F0A00343EA01138461036230BCED
:10248C007047836823F070030B4343F007038360AA
:10249C007047000090F83D30DBB2012B27D10223AE
:1024AC0080F83D300268D36843F00103D3600368C1
:1024BC00114A934210D0B3F1804F0DD0A2F5943253
:1024CC00934209D002F58062934205D01A6842F01B
:1024DC0001021A60002070479A6802F00702062A6F
:1024EC0007D01A6842F001021A60002070470120E0
:1024FC0070470020704700BF002C014070477047A8
:10250C0070477047704710B5044603681A6912F09B
:10251C00020F11D0DA6812F0020F0DD06FF0020228
:10252C001A610123037703689B6913F0030F70D0C2
:10253C00FFF7E6FF0023237723681A6912F0040FD4
:10254C0012D0DA6812F0040F0ED06FF004021A6188
:10255C000223237723689B6913F4407F5FD02046C6
:10256C00FFF7CEFF0023237723681A6912F0080FB8
:10257C0012D0DA6812F0080F0ED06FF008021A6150
:10258C00042323772368DB6913F0030F4ED0204616
:10259C00FFF7B6FF0023237723681A6912F0100F98
:1025AC0012D0DA6812F0100F0ED06FF010021A6110
:1025BC00082323772368DB6913F4407F3DD0204642
:1025CC00FFF79EFF0023237723681A6912F0010F8F
:1025DC0003D0DA6812F0010F36D123681A6912F0B1
:1025EC00800F03D0DA6812F0800F34D123681A6997
:1025FC0012F0400F03D0DA6812F0400F32D123688A
:10260C001A6912F0200F03D0DA6812F0200F30D1C3
:10261C0010BDFFF774FF2046FFF773FF8AE72046D3
:10262C00FFF76DFF2046FFF76CFF9BE72046FFF797
:10263C0066FF2046FFF765FFACE72046FFF75FFF1C
:10264C002046FFF75EFFBDE76FF001021A612046DE
:10265C00FDF7D4FDC1E76FF080021A61204600F04F
:10266C00EBFAC3E76FF040021A612046FFF74AFF0E
:10267C00C5E76FF020021A61204600F0DCFAC7E7CC
:10268C0003681B4A90420AD0B0F1804F07D0A2F5E4
:10269C009432904203D002F58062904203D123F031
:1026AC0070034A681343124A90420AD0B0F1804F2B
:1026BC0007D0A2F59432904203D002F5806290428A
:1026CC0003D123F44073CA68134323F080034A698F
:1026DC00134303608B68C3620B688362044B98429C
:1026EC0002D00123436170470B690363F9E700BF14
:1026FC00002C014040B310B5044690F83D30F3B1C6
:10270C00022384F83D30214651F8040BFFF7B8FF43
:10271C00012384F8463084F83E3084F83F3084F846
:10272C00403084F8413084F8423084F8433084F8E7
:10273C00443084F8453084F83D30002010BD80F8DA
:10274C003C30FDF7D3FEDBE70120704740B310B5FA
:10275C00044690F83D30F3B1022384F83D30214615
:10276C0051F8040BFFF78CFF012384F8463084F8F2
:10277C003E3084F83F3084F8403084F8413084F89F
:10278C00423084F8433084F8443084F8453084F87F
:10279C003D30002010BD80F83C30FFF7AFFEDBE78A
:1027AC000120704730B4036A026A22F01002026200
:1027BC004468826922F4E6420D6842EA052223F05D
:1027CC0020038D6843EA05130E4DA84209D00D4D28
:1027DC00A8420ED0446082614A688263036230BCB6
:1027EC00704723F08003CD6843EA051323F04003C0
:1027FC00EDE724F440644D6944EA85048D6944EAAC
:10280C008504E7E7002C014038B590F83C30012BEB
:10281C0066D004460D46012380F83C300C2A5AD869
:10282C00DFE802F0075959591B5959593059595970
:10283C0044000068FFF77CFD2268936943F00803AD
:10284C0093612268936923F004039361226893696E
:10285C0029690B43936100203EE00068FFF7A2FF5B
:10286C002268936943F4006393612268936923F4AB
:10287C008063936122689369296943EA0123936118
:10288C00002029E00068FFF781FD2268D36943F03E
:10289C000803D3612268D36923F00403D36122684F
:1028AC00D36929690B43D361002015E00068FFF759
:1028BC009FFD2268D36943F40063D3612268D36916
:1028CC0023F48063D3612268D369296943EA012325
:1028DC00D361002000E00120002384F83C3038BD97
:1028EC000220FCE710B4846824F47F4442EA0322FB
:1028FC000A432243826010BC704790F83C30012B95
:10290C0078D010B50446012380F83C30022380F8BF
:10291C003D300268936823F47F4323F07703936080
:10292C000B68602B4CD029D8402B54D00CD9502B91
:10293C0022D1CA6849680068FFF77EFD50212068E3
:10294C00FFF79FFD002005E0202B0DD009D9302B7F
:10295C000AD00120012384F83D30002384F83C3058
:10296C0010BD0BB1102B05D119462068FFF789FD5E
:10297C000020EFE70120EDE70120EBE7B3F5805FE6
:10298C0034D0B3F5005F0CD1CB684A688968006815
:10299C00FFF7A8FF2268936843F4804393600020FC
:1029AC00D8E7702B24D1CB684A6889680068FFF798
:1029BC0099FF2268936843F0770393600020C9E77E
:1029CC00CA6849680068FFF749FD60212068FFF775
:1029DC0058FD0020BEE7CA6849680068FFF72CFD67
:1029EC0040212068FFF74DFD0020B3E70020B1E740
:1029FC000120AFE70220704710B401F01F01012342
:102A0C0003FA01F4036A23EA04030362036A02FA79
:102A1C0001F10B43036210BC7047000010B5044673
:102A2C00084651BB94F83E30DBB2013B18BF012382
:102A3C00002B5BD1002839D1022384F83E300122CF
:102A4C0001462068FFF7D8FF23682A4A93423DD0FD
:102A5C002368284A93423ED0B3F1804F3BD0A2F575
:102A6C009432934237D002F58062934233D01A6885
:102A7C0042F001021A60002039E0042908D008292C
:102A8C000DD094F84130DBB2013B18BF0123CFE7E6
:102A9C0094F83F30DBB2013B18BF0123C8E794F830
:102AAC004030DBB2013B18BF0123C1E7042805D03D
:102ABC00082807D0022384F84130C0E7022384F8A9
:102ACC003F30BCE7022384F84030B8E75A6C42F43C
:102ADC0000425A64BCE79A6802F00702062A07D043
:102AEC001A6842F001021A60002000E0012010BDBB
:102AFC000020FCE7002C014038B504460D460022AE
:102B0C000068FFF779FF23681B4A934214D02368AF
:102B1C00196A41F21112114208D1196A40F2444269
:102B2C00114203D11A6822F001021A609DB90123E7
:102B3C0084F83E30002038BD196A41F2111211425E
:102B4C00E5D1196A40F244421142E0D15A6C22F4A8
:102B5C0000425A64DBE7042D05D0082D07D0012371
:102B6C0084F84130E6E7012384F83F30E2E70123A3
:102B7C0084F84030DEE700BF002C014090F83C3078
:102B8C00012B2BD030B4012380F83C30022380F889
:102B9C003D3003685C689D6824F070040A68224329
:102BAC005A6003680E4A93420AD0B3F1804F07D0A3
:102BBC00A2F59432934203D002F58062934204D181
:102BCC0025F080054A6815439D60012380F83D304F
:102BDC00002380F83C30184630BC70470220704708
:102BEC00002C014090F83C30012B22D0012380F8BE
:102BFC003C30CB6823F440738A68134323F480631E
:102C0C004A68134323F400630A68134323F4805384
:102C1C000A69134323F400534A69134323F4804392
:102C2C00CA69134302685364002380F83C30184689
:102C3C0070470220704770477047026802F10C031E
:102C4C0053E8003F23F490730C3242E80031002922
:102C5C00F3D1026802F1140353E8003F23F001039F
:102C6C00143242E800310029F3D1036B012B05D05B
:102C7C00202380F84230002303637047026802F17E
:102C8C000C0353E8003F23F010030C3242E80031F0
:102C9C000029F3D1ECE790F84130DBB2212B01D0C5
:102CAC00022070478368B3F5805F17D0036A5A1C03
:102CBC0002621A7803685A60C38C9BB2013B9BB2C8
:102CCC00C3844BB90268D36823F08003D3600268D5
:102CDC00D36843F04003D360002070470369002B96
:102CEC00E4D1036A1B880268C3F308035360036AC8
:102CFC0002330362E0E7000010B504460268136972
:102D0C0023F44053C1680B43136183680269134376
:102D1C0042691A430168CB6823F4B05323F00C03C7
:102D2C001343CB600268536923F4407381690B43EE
:102D3C0053610268124B9A421FD0FFF7D9FA00EB8D
:102D4C00800303EB830362689200B3FBF2F20D483D
:102D5C00A0FB02314909642303FB11231B0132330D
:102D6C00A0FB03235B0903F0F00202EB011203F05A
:102D7C000F03216813448B6010BDFFF7C9FADEE71F
:102D8C00003801401F85EB5160B310B5044690F834
:102D9C00413013B3242384F841302268D36823F4E0
:102DAC000053D3602046FFF7A7FF2268136923F472
:102DBC00904313612268536923F02A0353612268FC
:102DCC00D36843F40053D36000206064202384F85C
:102DDC00413084F84230606310BD80F84030FDF71C
:102DEC00E5FBD7E701207047704708B50168CA6852
:102DFC0022F04002CA60202280F84120FFF7F4FF45
:102E0C00002008BD7047704708B5406A0023C38591
:102E1C00C384FFF7F8FF08BD704790F84230DBB26F
:102E2C00222B69D18368B3F5805F4FD0826AB3F5EA
:102E3C00805F04D0002B56D10369002B53D103685B
:102E4C005B681370836A01338362C38D9BB2013B51
:102E5C009BB2C385002B51D100B583B00268D368F7
:102E6C0023F02003D3600268D36823F48073D3600B
:102E7C000268536923F001035361202380F8423028
:102E8C0000234363036B012B33D1002303630268DC
:102E9C0002F10C0353E8003F23F010030C3242E81C
:102EAC0000310029F3D103681A6812F0100F06D014
:102EBC00002201921A6801925B680193019B818D3B
:102ECC00FFF7AAFF002003B05DF804FB0269002A9B
:102EDC00ACD1826A03685B68C3F308031380836A0E
:102EEC0002338362B1E703685B6803F07F031370FE
:102EFC00A8E7FFF787FFE5E702207047002070473F
:102F0C0030B583B0044602681368D068516913F079
:102F1C000F0505D113F0200F02D010F0200F19D19E
:102F2C002DB111F0010119D110F4907F16D1216B44
:102F3C0001297DD013F0800F03D010F0800F40F0EA
:102F4C00188113F0400F03D010F0400F40F01581A2
:102F5C0003B030BD2046FFF760FFF9E713F0010F17
:102F6C0006D010F4807F03D0626C42F001026264E0
:102F7C0013F0040F04D019B1626C42F002026264C7
:102F8C0013F0020F04D019B1626C42F004026264B7
:102F9C0013F0080F07D010F0200F00D119B1626C9C
:102FAC0042F008026264626C002AD1D013F0200F48
:102FBC0002D010F0200F29D123685B6903F0400385
:102FCC00626C12F0080F00D163B32046FFF735FE98
:102FDC0023685B6913F0400F20D0226802F11403C0
:102FEC0053E8003F23F04003143242E8003100293B
:102FFC00F3D1E36B73B1634A5A63E06BFDF738FCB2
:10300C000028A5D0E06B436B9847A1E72046FFF75B
:10301C0004FFD1E72046FFF7F6FE99E72046FFF7BD
:10302C00F2FE95E72046FFF7EEFE002363648FE780
:10303C0013F0100F3FF47EAF10F0100F3FF47AAF87
:10304C00002301931368019353680193019B536907
:10305C0013F0400F51D0E26B13685B689BB2002BEE
:10306C003FF476AFA18D99427FF672AFE3859369F9
:10307C00202B37D0226802F10C0353E8003F23F4D5
:10308C0080730C3242E800310029F3D1226802F13E
:10309C00140353E8003F23F00103143242E80031DB
:1030AC000029F3D1226802F1140353E8003F23F006
:1030BC004003143242E800310029F3D1202384F874
:1030CC00423000232363226802F10C0353E8003FD3
:1030DC0023F010030C3242E800310029F3D1E06BED
:1030EC00FDF7A2FB02236363A18DE38D9BB2C91A8A
:1030FC0089B22046FFF790FE2AE7A18DE38D9BB2A3
:10310C00C91A89B2E38D9BB2002B3FF421AF002981
:10311C003FF41EAF226802F10C0353E8003F23F486
:10312C0090730C3242E800300028F3D1226802F18F
:10313C00140353E8003F23F00103143242E800303B
:10314C000028F3D1202384F8423000232363226823
:10315C0002F10C0353E8003F23F010030C3242E859
:10316C0000300028F3D1022363632046FFF754FE9E
:10317C00EEE62046FFF78FFDEAE62046FFF735FE28
:10318C00E6E600BF152E0008FDF798FA0B480C492F
:10319C000C4A002302E0D458C4500433C4188C42A7
:1031AC00F9D3094A094C002301E013600432A2420E
:1031BC00FBD300F00FF8FDF717F970470000002063
:1031CC00100000208432000810000020180100209C
:1031DC00FEE7000070B500260C4D0D4C641BA410CE
:1031EC00A64209D100F022F800260A4D0A4C641BB5
:1031FC00A410A64205D170BD55F8043B9847013682
:10320C00EEE755F8043B98470136F2E77C320008AC
:10321C007C3200087C3200088032000803460244ED
:10322C00934200D1704703F8011BF9E7F8B500BFD2
:10323C00F8BC08BC9E467047F8B500BFF8BC08BC8B
:04324C009E467047E3
:103250000000000000000000010203040607080946
:103260000000000001020304020304050607080928
:0C3270000A0B0C0D0E0F101001020000E4
:04327C003101000814
:043280000D01000834
:103284004D0100000024F4000100000010000000C3
:040000050800319529
:00000001FF
